{
  "abi": [
    {
      "inputs": [],
      "stateMutability": "nonpayable",
      "type": "constructor"
    },
    {
      "inputs": [],
      "name": "BuyTickets",
      "outputs": [],
      "stateMutability": "payable",
      "type": "function"
    },
    {
      "inputs": [],
      "name": "BuyTicketsBonus",
      "outputs": [],
      "stateMutability": "payable",
      "type": "function"
    },
    {
      "inputs": [],
      "name": "BuyTicketsBonus2",
      "outputs": [],
      "stateMutability": "payable",
      "type": "function"
    },
    {
      "inputs": [],
      "name": "BuyTicketsBonus3",
      "outputs": [],
      "stateMutability": "payable",
      "type": "function"
    },
    {
      "inputs": [],
      "name": "CurrentWinningReward",
      "outputs": [
        {
          "internalType": "uint256",
          "name": "",
          "type": "uint256"
        }
      ],
      "stateMutability": "view",
      "type": "function"
    },
    {
      "inputs": [],
      "name": "DrawWinnerTicket",
      "outputs": [],
      "stateMutability": "nonpayable",
      "type": "function"
    },
    {
      "inputs": [],
      "name": "IsWinner",
      "outputs": [
        {
          "internalType": "bool",
          "name": "",
          "type": "bool"
        }
      ],
      "stateMutability": "view",
      "type": "function"
    },
    {
      "inputs": [],
      "name": "RefundAll",
      "outputs": [],
      "stateMutability": "nonpayable",
      "type": "function"
    },
    {
      "inputs": [],
      "name": "RemainingTickets",
      "outputs": [
        {
          "internalType": "uint256",
          "name": "",
          "type": "uint256"
        }
      ],
      "stateMutability": "view",
      "type": "function"
    },
    {
      "inputs": [],
      "name": "WithdrawCommission",
      "outputs": [],
      "stateMutability": "nonpayable",
      "type": "function"
    },
    {
      "inputs": [],
      "name": "WithdrawWinnings",
      "outputs": [],
      "stateMutability": "nonpayable",
      "type": "function"
    },
    {
      "inputs": [],
      "name": "biggestPrize",
      "outputs": [
        {
          "internalType": "address",
          "name": "",
          "type": "address"
        }
      ],
      "stateMutability": "view",
      "type": "function"
    },
    {
      "inputs": [],
      "name": "biggestPrizeAmmount",
      "outputs": [
        {
          "internalType": "uint256",
          "name": "",
          "type": "uint256"
        }
      ],
      "stateMutability": "view",
      "type": "function"
    },
    {
      "inputs": [],
      "name": "bonticket",
      "outputs": [
        {
          "internalType": "uint256",
          "name": "",
          "type": "uint256"
        }
      ],
      "stateMutability": "view",
      "type": "function"
    },
    {
      "inputs": [],
      "name": "bonticket2",
      "outputs": [
        {
          "internalType": "uint256",
          "name": "",
          "type": "uint256"
        }
      ],
      "stateMutability": "view",
      "type": "function"
    },
    {
      "inputs": [],
      "name": "checkWinningsAmount",
      "outputs": [
        {
          "internalType": "uint256",
          "name": "",
          "type": "uint256"
        }
      ],
      "stateMutability": "view",
      "type": "function"
    },
    {
      "inputs": [],
      "name": "duration",
      "outputs": [
        {
          "internalType": "uint256",
          "name": "",
          "type": "uint256"
        }
      ],
      "stateMutability": "view",
      "type": "function"
    },
    {
      "inputs": [],
      "name": "expiration",
      "outputs": [
        {
          "internalType": "uint256",
          "name": "",
          "type": "uint256"
        }
      ],
      "stateMutability": "view",
      "type": "function"
    },
    {
      "inputs": [],
      "name": "getTickets",
      "outputs": [
        {
          "internalType": "address[]",
          "name": "",
          "type": "address[]"
        }
      ],
      "stateMutability": "view",
      "type": "function"
    },
    {
      "inputs": [
        {
          "internalType": "address",
          "name": "addr",
          "type": "address"
        }
      ],
      "name": "getWinningsForAddress",
      "outputs": [
        {
          "internalType": "uint256",
          "name": "",
          "type": "uint256"
        }
      ],
      "stateMutability": "view",
      "type": "function"
    },
    {
      "inputs": [],
      "name": "lastWinner",
      "outputs": [
        {
          "internalType": "address",
          "name": "",
          "type": "address"
        }
      ],
      "stateMutability": "view",
      "type": "function"
    },
    {
      "inputs": [],
      "name": "lastWinnerAmount",
      "outputs": [
        {
          "internalType": "uint256",
          "name": "",
          "type": "uint256"
        }
      ],
      "stateMutability": "view",
      "type": "function"
    },
    {
      "inputs": [],
      "name": "lotteryOperator",
      "outputs": [
        {
          "internalType": "address",
          "name": "",
          "type": "address"
        }
      ],
      "stateMutability": "view",
      "type": "function"
    },
    {
      "inputs": [],
      "name": "maxTickets",
      "outputs": [
        {
          "internalType": "uint256",
          "name": "",
          "type": "uint256"
        }
      ],
      "stateMutability": "view",
      "type": "function"
    },
    {
      "inputs": [],
      "name": "operatorTotalCommission",
      "outputs": [
        {
          "internalType": "uint256",
          "name": "",
          "type": "uint256"
        }
      ],
      "stateMutability": "view",
      "type": "function"
    },
    {
      "inputs": [],
      "name": "restartDraw",
      "outputs": [],
      "stateMutability": "nonpayable",
      "type": "function"
    },
    {
      "inputs": [],
      "name": "ticketCommission",
      "outputs": [
        {
          "internalType": "uint256",
          "name": "",
          "type": "uint256"
        }
      ],
      "stateMutability": "view",
      "type": "function"
    },
    {
      "inputs": [],
      "name": "ticketPrice",
      "outputs": [
        {
          "internalType": "uint256",
          "name": "",
          "type": "uint256"
        }
      ],
      "stateMutability": "view",
      "type": "function"
    },
    {
      "inputs": [
        {
          "internalType": "uint256",
          "name": "",
          "type": "uint256"
        }
      ],
      "name": "tickets",
      "outputs": [
        {
          "internalType": "address",
          "name": "",
          "type": "address"
        }
      ],
      "stateMutability": "view",
      "type": "function"
    },
    {
      "inputs": [
        {
          "internalType": "address",
          "name": "",
          "type": "address"
        }
      ],
      "name": "winnings",
      "outputs": [
        {
          "internalType": "uint256",
          "name": "",
          "type": "uint256"
        }
      ],
      "stateMutability": "view",
      "type": "function"
    }
  ],
  "devdoc": {
    "kind": "dev",
    "methods": {},
    "version": 1
  },
  "evm": {
    "assembly": "    /* \"Lottery.sol\":122:7007  contract Lottery {... */\n  mstore(0x40, 0x80)\n    /* \"Lottery.sol\":174:184  0.01 ether */\n  0x2386f26fc10000\n    /* \"Lottery.sol\":145:184  uint256 public ticketPrice = 0.01 ether */\n  0x00\n  sstore\n    /* \"Lottery.sol\":638:639  0 */\n  0x00\n    /* \"Lottery.sol\":597:639  uint256 public operatorTotalCommission = 0 */\n  0x03\n  sstore\n    /* \"Lottery.sol\":921:932  0.009 ether */\n  0x1ff973cafa8000\n    /* \"Lottery.sol\":894:932  uint256 public bonticket = 0.009 ether */\n  0x08\n  sstore\n    /* \"Lottery.sol\":966:977  0.006 ether */\n  0x1550f7dca70000\n    /* \"Lottery.sol\":938:977  uint256 public bonticket2 = 0.006 ether */\n  0x09\n  sstore\n    /* \"Lottery.sol\":1504:1612  constructor() {... */\n  callvalue\n  dup1\n  iszero\n  tag_1\n  jumpi\n  0x00\n  dup1\n  revert\ntag_1:\n  pop\n    /* \"Lottery.sol\":1528:1543  lotteryOperator */\n  0x02\n    /* \"Lottery.sol\":1528:1556  lotteryOperator = msg.sender */\n  dup1\n  sload\n  not(sub(shl(0xa0, 0x01), 0x01))\n  and\n    /* \"Lottery.sol\":1546:1556  msg.sender */\n  caller\n    /* \"Lottery.sol\":1528:1556  lotteryOperator = msg.sender */\n  or\n  swap1\n  sstore\n    /* \"Lottery.sol\":1579:1605  block.timestamp + duration */\n  tag_4\n    /* \"Lottery.sol\":388:401  43200 minutes */\n  0x278d00\n    /* \"Lottery.sol\":1579:1594  block.timestamp */\n  timestamp\n    /* \"Lottery.sol\":1579:1605  block.timestamp + duration */\n  tag_5\n  jump\t// in\ntag_4:\n    /* \"Lottery.sol\":1566:1576  expiration */\n  0x01\n    /* \"Lottery.sol\":1566:1605  expiration = block.timestamp + duration */\n  sstore\n    /* \"Lottery.sol\":122:7007  contract Lottery {... */\n  jump(tag_7)\n    /* \"#utility.yul\":14:236   */\ntag_5:\n    /* \"#utility.yul\":79:88   */\n  dup1\n  dup3\n  add\n    /* \"#utility.yul\":100:110   */\n  dup1\n  dup3\n  gt\n    /* \"#utility.yul\":97:230   */\n  iszero\n  tag_9\n  jumpi\n    /* \"#utility.yul\":152:162   */\n  0x4e487b71\n    /* \"#utility.yul\":147:150   */\n  0xe0\n    /* \"#utility.yul\":143:163   */\n  shl\n    /* \"#utility.yul\":140:141   */\n  0x00\n    /* \"#utility.yul\":133:164   */\n  mstore\n    /* \"#utility.yul\":187:191   */\n  0x11\n    /* \"#utility.yul\":184:185   */\n  0x04\n    /* \"#utility.yul\":177:192   */\n  mstore\n    /* \"#utility.yul\":215:219   */\n  0x24\n    /* \"#utility.yul\":212:213   */\n  0x00\n    /* \"#utility.yul\":205:220   */\n  revert\n    /* \"#utility.yul\":97:230   */\ntag_9:\n    /* \"#utility.yul\":14:236   */\n  swap3\n  swap2\n  pop\n  pop\n  jump\t// out\ntag_7:\n    /* \"Lottery.sol\":122:7007  contract Lottery {... */\n  dataSize(sub_0)\n  dup1\n  dataOffset(sub_0)\n  0x00\n  codecopy\n  0x00\n  return\nstop\n\nsub_0: assembly {\n        /* \"Lottery.sol\":122:7007  contract Lottery {... */\n      mstore(0x40, 0x80)\n      jumpi(tag_1, lt(calldatasize, 0x04))\n      shr(0xe0, calldataload(0x00))\n      dup1\n      0x91d8b14e\n      gt\n      tag_32\n      jumpi\n      dup1\n      0xaa52e8c6\n      gt\n      tag_33\n      jumpi\n      dup1\n      0xe89c51c8\n      gt\n      tag_34\n      jumpi\n      dup1\n      0xe89c51c8\n      eq\n      tag_28\n      jumpi\n      dup1\n      0xea3a1499\n      eq\n      tag_29\n      jumpi\n      dup1\n      0xf2613269\n      eq\n      tag_30\n      jumpi\n      dup1\n      0xfe188184\n      eq\n      tag_31\n      jumpi\n      0x00\n      dup1\n      revert\n    tag_34:\n      dup1\n      0xaa52e8c6\n      eq\n      tag_24\n      jumpi\n      dup1\n      0xba946d79\n      eq\n      tag_25\n      jumpi\n      dup1\n      0xc6944fa0\n      eq\n      tag_26\n      jumpi\n      dup1\n      0xdd64e534\n      eq\n      tag_27\n      jumpi\n      0x00\n      dup1\n      revert\n    tag_33:\n      dup1\n      0x97aed58a\n      gt\n      tag_35\n      jumpi\n      dup1\n      0x97aed58a\n      eq\n      tag_20\n      jumpi\n      dup1\n      0x9b894703\n      eq\n      tag_21\n      jumpi\n      dup1\n      0x9c000f2b\n      eq\n      tag_22\n      jumpi\n      dup1\n      0xa88f4672\n      eq\n      tag_23\n      jumpi\n      0x00\n      dup1\n      revert\n    tag_35:\n      dup1\n      0x91d8b14e\n      eq\n      tag_17\n      jumpi\n      dup1\n      0x93a563b5\n      eq\n      tag_18\n      jumpi\n      dup1\n      0x96c85ef3\n      eq\n      tag_19\n      jumpi\n      0x00\n      dup1\n      revert\n    tag_32:\n      dup1\n      0x4665096d\n      gt\n      tag_36\n      jumpi\n      dup1\n      0x5a58acdd\n      gt\n      tag_37\n      jumpi\n      dup1\n      0x5a58acdd\n      eq\n      tag_13\n      jumpi\n      dup1\n      0x6032a4f9\n      eq\n      tag_14\n      jumpi\n      dup1\n      0x71827b7b\n      eq\n      tag_15\n      jumpi\n      dup1\n      0x7999b66b\n      eq\n      tag_16\n      jumpi\n      0x00\n      dup1\n      revert\n    tag_37:\n      dup1\n      0x4665096d\n      eq\n      tag_9\n      jumpi\n      dup1\n      0x4788af7c\n      eq\n      tag_10\n      jumpi\n      dup1\n      0x4ed02622\n      eq\n      tag_11\n      jumpi\n      dup1\n      0x50b44712\n      eq\n      tag_12\n      jumpi\n      0x00\n      dup1\n      revert\n    tag_36:\n      dup1\n      0x0fb5a6b4\n      gt\n      tag_38\n      jumpi\n      dup1\n      0x0fb5a6b4\n      eq\n      tag_5\n      jumpi\n      dup1\n      0x1209b1f6\n      eq\n      tag_6\n      jumpi\n      dup1\n      0x3458fd87\n      eq\n      tag_7\n      jumpi\n      dup1\n      0x35580df2\n      eq\n      tag_8\n      jumpi\n      0x00\n      dup1\n      revert\n    tag_38:\n      dup1\n      0x01482fac\n      eq\n      tag_2\n      jumpi\n      dup1\n      0x06f7f3bf\n      eq\n      tag_3\n      jumpi\n      dup1\n      0x0789c607\n      eq\n      tag_4\n      jumpi\n    tag_1:\n      0x00\n      dup1\n      revert\n        /* \"Lottery.sol\":894:932  uint256 public bonticket = 0.009 ether */\n    tag_2:\n      callvalue\n      dup1\n      iszero\n      tag_39\n      jumpi\n      0x00\n      dup1\n      revert\n    tag_39:\n      pop\n      tag_40\n      sload(0x08)\n      dup2\n      jump\n    tag_40:\n      mload(0x40)\n        /* \"#utility.yul\":160:185   */\n      swap1\n      dup2\n      mstore\n        /* \"#utility.yul\":148:150   */\n      0x20\n        /* \"#utility.yul\":133:151   */\n      add\n        /* \"Lottery.sol\":894:932  uint256 public bonticket = 0.009 ether */\n    tag_42:\n      mload(0x40)\n      dup1\n      swap2\n      sub\n      swap1\n      return\n        /* \"Lottery.sol\":742:773  uint256 public lastWinnerAmount */\n    tag_3:\n      callvalue\n      dup1\n      iszero\n      tag_44\n      jumpi\n      0x00\n      dup1\n      revert\n    tag_44:\n      pop\n      tag_40\n      sload(0x05)\n      dup2\n      jump\n        /* \"Lottery.sol\":5617:5825  function checkWinningsAmount() public view returns (uint256) {... */\n    tag_4:\n      callvalue\n      dup1\n      iszero\n      tag_48\n      jumpi\n      0x00\n      dup1\n      revert\n    tag_48:\n      pop\n        /* \"Lottery.sol\":5721:5731  msg.sender */\n      caller\n        /* \"Lottery.sol\":5669:5676  uint256 */\n      0x00\n        /* \"Lottery.sol\":5769:5785  winnings[winner] */\n      swap1\n      dup2\n      mstore\n        /* \"Lottery.sol\":5769:5777  winnings */\n      0x0a\n        /* \"Lottery.sol\":5769:5785  winnings[winner] */\n      0x20\n      mstore\n      0x40\n      swap1\n      keccak256\n      sload\n        /* \"Lottery.sol\":5617:5825  function checkWinningsAmount() public view returns (uint256) {... */\n      jump(tag_40)\n        /* \"Lottery.sol\":353:401  uint256 public constant duration = 43200 minutes */\n    tag_5:\n      callvalue\n      dup1\n      iszero\n      tag_52\n      jumpi\n      0x00\n      dup1\n      revert\n    tag_52:\n      pop\n      tag_40\n        /* \"Lottery.sol\":388:401  43200 minutes */\n      0x278d00\n        /* \"Lottery.sol\":353:401  uint256 public constant duration = 43200 minutes */\n      dup2\n      jump\n        /* \"Lottery.sol\":145:184  uint256 public ticketPrice = 0.01 ether */\n    tag_6:\n      callvalue\n      dup1\n      iszero\n      tag_56\n      jumpi\n      0x00\n      dup1\n      revert\n    tag_56:\n      pop\n      tag_40\n      sload(0x00)\n      dup2\n      jump\n        /* \"Lottery.sol\":938:977  uint256 public bonticket2 = 0.006 ether */\n    tag_7:\n      callvalue\n      dup1\n      iszero\n      tag_60\n      jumpi\n      0x00\n      dup1\n      revert\n    tag_60:\n      pop\n      tag_40\n      sload(0x09)\n      dup2\n      jump\n        /* \"Lottery.sol\":6408:6669  function WithdrawCommission() public isOperator {... */\n    tag_8:\n      callvalue\n      dup1\n      iszero\n      tag_64\n      jumpi\n      0x00\n      dup1\n      revert\n    tag_64:\n      pop\n      tag_65\n      tag_66\n      jump\t// in\n    tag_65:\n      stop\n        /* \"Lottery.sol\":444:469  uint256 public expiration */\n    tag_9:\n      callvalue\n      dup1\n      iszero\n      tag_67\n      jumpi\n      0x00\n      dup1\n      revert\n    tag_67:\n      pop\n      tag_40\n      sload(0x01)\n      dup2\n      jump\n        /* \"Lottery.sol\":4681:5403  function DrawWinnerTicket() public isOperator {... */\n    tag_10:\n      callvalue\n      dup1\n      iszero\n      tag_71\n      jumpi\n      0x00\n      dup1\n      revert\n    tag_71:\n      pop\n      tag_65\n      tag_73\n      jump\t// in\n        /* \"Lottery.sol\":1648:1740  function getTickets() public view returns (address[] memory) {... */\n    tag_11:\n      callvalue\n      dup1\n      iszero\n      tag_74\n      jumpi\n      0x00\n      dup1\n      revert\n    tag_74:\n      pop\n      tag_75\n      tag_76\n      jump\t// in\n    tag_75:\n      mload(0x40)\n      tag_42\n      swap2\n      swap1\n      tag_78\n      jump\t// in\n        /* \"Lottery.sol\":1071:1095  address[] public tickets */\n    tag_12:\n      callvalue\n      dup1\n      iszero\n      tag_79\n      jumpi\n      0x00\n      dup1\n      revert\n    tag_79:\n      pop\n      tag_80\n      tag_81\n      calldatasize\n      0x04\n      tag_82\n      jump\t// in\n    tag_81:\n      tag_83\n      jump\t// in\n    tag_80:\n      mload(0x40)\n      sub(shl(0xa0, 0x01), 0x01)\n        /* \"#utility.yul\":1231:1286   */\n      swap1\n      swap2\n      and\n        /* \"#utility.yul\":1213:1287   */\n      dup2\n      mstore\n        /* \"#utility.yul\":1201:1203   */\n      0x20\n        /* \"#utility.yul\":1186:1204   */\n      add\n        /* \"Lottery.sol\":1071:1095  address[] public tickets */\n      tag_42\n        /* \"#utility.yul\":1067:1293   */\n      jump\n        /* \"Lottery.sol\":532:562  address public lotteryOperator */\n    tag_13:\n      callvalue\n      dup1\n      iszero\n      tag_86\n      jumpi\n      0x00\n      dup1\n      revert\n    tag_86:\n      pop\n      sload(0x02)\n      tag_80\n      swap1\n      sub(shl(0xa0, 0x01), 0x01)\n      and\n      dup2\n      jump\n        /* \"Lottery.sol\":269:323  uint256 public constant ticketCommission = 0.001 ether */\n    tag_14:\n      callvalue\n      dup1\n      iszero\n      tag_90\n      jumpi\n      0x00\n      dup1\n      revert\n    tag_90:\n      pop\n      tag_40\n        /* \"Lottery.sol\":312:323  0.001 ether */\n      0x038d7ea4c68000\n        /* \"Lottery.sol\":269:323  uint256 public constant ticketCommission = 0.001 ether */\n      dup2\n      jump\n        /* \"Lottery.sol\":5831:6062  function WithdrawWinnings() public isWinner {... */\n    tag_15:\n      callvalue\n      dup1\n      iszero\n      tag_94\n      jumpi\n      0x00\n      dup1\n      revert\n    tag_94:\n      pop\n      tag_65\n      tag_96\n      jump\t// in\n        /* \"Lottery.sol\":821:848  address public biggestPrize */\n    tag_16:\n      callvalue\n      dup1\n      iszero\n      tag_97\n      jumpi\n      0x00\n      dup1\n      revert\n    tag_97:\n      pop\n      sload(0x06)\n      tag_80\n      swap1\n      sub(shl(0xa0, 0x01), 0x01)\n      and\n      dup2\n      jump\n        /* \"Lottery.sol\":1865:2436  function BuyTickets() public payable {... */\n    tag_17:\n      tag_65\n      tag_102\n      jump\t// in\n        /* \"Lottery.sol\":6896:7005  function RemainingTickets() public view returns (uint256) {... */\n    tag_18:\n      callvalue\n      dup1\n      iszero\n      tag_103\n      jumpi\n      0x00\n      dup1\n      revert\n    tag_103:\n      pop\n      tag_40\n      tag_105\n      jump\t// in\n        /* \"Lottery.sol\":6675:6770  function IsWinner() public view returns (bool) {... */\n    tag_19:\n      callvalue\n      dup1\n      iszero\n      tag_107\n      jumpi\n      0x00\n      dup1\n      revert\n    tag_107:\n      pop\n        /* \"Lottery.sol\":6748:6758  msg.sender */\n      caller\n        /* \"Lottery.sol\":6716:6720  bool */\n      0x00\n        /* \"Lottery.sol\":6739:6759  winnings[msg.sender] */\n      swap1\n      dup2\n      mstore\n        /* \"Lottery.sol\":6739:6747  winnings */\n      0x0a\n        /* \"Lottery.sol\":6739:6759  winnings[msg.sender] */\n      0x20\n      mstore\n      0x40\n      swap1\n      keccak256\n      sload\n        /* \"Lottery.sol\":6739:6763  winnings[msg.sender] > 0 */\n      iszero\n      iszero\n        /* \"Lottery.sol\":6675:6770  function IsWinner() public view returns (bool) {... */\n      mload(0x40)\n        /* \"#utility.yul\":1463:1477   */\n      swap1\n      iszero\n        /* \"#utility.yul\":1456:1478   */\n      iszero\n        /* \"#utility.yul\":1438:1479   */\n      dup2\n      mstore\n        /* \"#utility.yul\":1426:1428   */\n      0x20\n        /* \"#utility.yul\":1411:1429   */\n      add\n        /* \"Lottery.sol\":6675:6770  function IsWinner() public view returns (bool) {... */\n      tag_42\n        /* \"#utility.yul\":1298:1485   */\n      jump\n        /* \"Lottery.sol\":3207:3960  function BuyTicketsBonus2() public payable {... */\n    tag_20:\n      tag_65\n      tag_113\n      jump\t// in\n        /* \"Lottery.sol\":190:232  uint256 public constant maxTickets = 10000 */\n    tag_21:\n      callvalue\n      dup1\n      iszero\n      tag_114\n      jumpi\n      0x00\n      dup1\n      revert\n    tag_114:\n      pop\n      tag_40\n        /* \"Lottery.sol\":227:232  10000 */\n      0x2710\n        /* \"Lottery.sol\":190:232  uint256 public constant maxTickets = 10000 */\n      dup2\n      jump\n        /* \"Lottery.sol\":3964:4667  function BuyTicketsBonus3() public payable {... */\n    tag_22:\n      tag_65\n      tag_119\n      jump\t// in\n        /* \"Lottery.sol\":6068:6401  function RefundAll() public {... */\n    tag_23:\n      callvalue\n      dup1\n      iszero\n      tag_120\n      jumpi\n      0x00\n      dup1\n      revert\n    tag_120:\n      pop\n      tag_65\n      tag_122\n      jump\t// in\n        /* \"Lottery.sol\":2443:3195  function BuyTicketsBonus() public payable {... */\n    tag_24:\n      tag_65\n      tag_124\n      jump\t// in\n        /* \"Lottery.sol\":597:639  uint256 public operatorTotalCommission = 0 */\n    tag_25:\n      callvalue\n      dup1\n      iszero\n      tag_125\n      jumpi\n      0x00\n      dup1\n      revert\n    tag_125:\n      pop\n      tag_40\n      sload(0x03)\n      dup2\n      jump\n        /* \"Lottery.sol\":6776:6890  function CurrentWinningReward() public view returns (uint256) {... */\n    tag_26:\n      callvalue\n      dup1\n      iszero\n      tag_129\n      jumpi\n      0x00\n      dup1\n      revert\n    tag_129:\n      pop\n      tag_40\n      tag_131\n      jump\t// in\n        /* \"Lottery.sol\":1746:1859  function getWinningsForAddress(address addr) public view returns (uint256) {... */\n    tag_27:\n      callvalue\n      dup1\n      iszero\n      tag_133\n      jumpi\n      0x00\n      dup1\n      revert\n    tag_133:\n      pop\n      tag_40\n      tag_135\n      calldatasize\n      0x04\n      tag_136\n      jump\t// in\n    tag_135:\n      sub(shl(0xa0, 0x01), 0x01)\n        /* \"Lottery.sol\":1838:1852  winnings[addr] */\n      and\n        /* \"Lottery.sol\":1812:1819  uint256 */\n      0x00\n        /* \"Lottery.sol\":1838:1852  winnings[addr] */\n      swap1\n      dup2\n      mstore\n        /* \"Lottery.sol\":1838:1846  winnings */\n      0x0a\n        /* \"Lottery.sol\":1838:1852  winnings[addr] */\n      0x20\n      mstore\n      0x40\n      swap1\n      keccak256\n      sload\n      swap1\n        /* \"Lottery.sol\":1746:1859  function getWinningsForAddress(address addr) public view returns (uint256) {... */\n      jump\n        /* \"Lottery.sol\":854:888  uint256 public biggestPrizeAmmount */\n    tag_28:\n      callvalue\n      dup1\n      iszero\n      tag_139\n      jumpi\n      0x00\n      dup1\n      revert\n    tag_139:\n      pop\n      tag_40\n      sload(0x07)\n      dup2\n      jump\n        /* \"Lottery.sol\":984:1027  mapping(address => uint256) public winnings */\n    tag_29:\n      callvalue\n      dup1\n      iszero\n      tag_143\n      jumpi\n      0x00\n      dup1\n      revert\n    tag_143:\n      pop\n      tag_40\n      tag_145\n      calldatasize\n      0x04\n      tag_136\n      jump\t// in\n    tag_145:\n      mstore(0x20, 0x0a)\n      0x00\n      swap1\n      dup2\n      mstore\n      0x40\n      swap1\n      keccak256\n      sload\n      dup2\n      jump\n        /* \"Lottery.sol\":5409:5611  function restartDraw() public isOperator {... */\n    tag_30:\n      callvalue\n      dup1\n      iszero\n      tag_148\n      jumpi\n      0x00\n      dup1\n      revert\n    tag_148:\n      pop\n      tag_65\n      tag_150\n      jump\t// in\n        /* \"Lottery.sol\":677:702  address public lastWinner */\n    tag_31:\n      callvalue\n      dup1\n      iszero\n      tag_151\n      jumpi\n      0x00\n      dup1\n      revert\n    tag_151:\n      pop\n      sload(0x04)\n      tag_80\n      swap1\n      sub(shl(0xa0, 0x01), 0x01)\n      and\n      dup2\n      jump\n        /* \"Lottery.sol\":6408:6669  function WithdrawCommission() public isOperator {... */\n    tag_66:\n        /* \"Lottery.sol\":1258:1273  lotteryOperator */\n      and(sub(shl(0xa0, 0x01), 0x01), sload(0x02))\n        /* \"Lottery.sol\":1244:1254  msg.sender */\n      caller\n        /* \"Lottery.sol\":1244:1273  msg.sender == lotteryOperator */\n      eq\n        /* \"Lottery.sol\":1222:1334  require(... */\n      tag_157\n      jumpi\n      mload(0x40)\n      shl(0xe5, 0x461bcd)\n      dup2\n      mstore\n        /* \"#utility.yul\":2006:2008   */\n      0x20\n        /* \"Lottery.sol\":1222:1334  require(... */\n      0x04\n      dup3\n      add\n        /* \"#utility.yul\":1988:2009   */\n      mstore\n        /* \"#utility.yul\":2045:2047   */\n      0x22\n        /* \"#utility.yul\":2025:2043   */\n      0x24\n      dup3\n      add\n        /* \"#utility.yul\":2018:2048   */\n      mstore\n        /* \"#utility.yul\":2084:2118   */\n      0x43616c6c6572206973206e6f7420746865206c6f7474657279206f7065726174\n        /* \"#utility.yul\":2064:2082   */\n      0x44\n      dup3\n      add\n        /* \"#utility.yul\":2057:2119   */\n      mstore\n      shl(0xf1, 0x37b9)\n        /* \"#utility.yul\":2135:2153   */\n      0x64\n      dup3\n      add\n        /* \"#utility.yul\":2128:2160   */\n      mstore\n        /* \"#utility.yul\":2177:2196   */\n      0x84\n      add\n        /* \"Lottery.sol\":1222:1334  require(... */\n    tag_158:\n      mload(0x40)\n      dup1\n      swap2\n      sub\n      swap1\n      revert\n    tag_157:\n        /* \"Lottery.sol\":6553:6576  operatorTotalCommission */\n      0x03\n      dup1\n      sload\n        /* \"Lottery.sol\":6466:6490  address payable operator */\n      0x00\n        /* \"Lottery.sol\":6586:6613  operatorTotalCommission = 0 */\n      swap2\n      dup3\n      swap1\n      sstore\n        /* \"Lottery.sol\":6624:6662  operator.transfer(commission2Transfer) */\n      mload(0x40)\n        /* \"Lottery.sol\":6501:6511  msg.sender */\n      caller\n      swap3\n      dup4\n      swap2\n        /* \"Lottery.sol\":6624:6662  operator.transfer(commission2Transfer) */\n      dup4\n      iszero\n      0x08fc\n      mul\n      swap2\n        /* \"Lottery.sol\":6553:6576  operatorTotalCommission */\n      dup5\n      swap2\n        /* \"Lottery.sol\":6624:6662  operator.transfer(commission2Transfer) */\n      swap1\n      dup2\n        /* \"Lottery.sol\":6466:6490  address payable operator */\n      dup2\n        /* \"Lottery.sol\":6624:6662  operator.transfer(commission2Transfer) */\n      dup2\n        /* \"Lottery.sol\":6553:6576  operatorTotalCommission */\n      dup6\n        /* \"Lottery.sol\":6501:6511  msg.sender */\n      dup9\n        /* \"Lottery.sol\":6624:6662  operator.transfer(commission2Transfer) */\n      dup9\n      call\n      swap4\n      pop\n      pop\n      pop\n      pop\n      iszero\n      dup1\n      iszero\n      tag_162\n      jumpi\n      returndatasize\n      0x00\n      dup1\n      returndatacopy\n      revert(0x00, returndatasize)\n    tag_162:\n      pop\n        /* \"Lottery.sol\":6456:6669  {... */\n      pop\n      pop\n        /* \"Lottery.sol\":6408:6669  function WithdrawCommission() public isOperator {... */\n      jump\t// out\n        /* \"Lottery.sol\":4681:5403  function DrawWinnerTicket() public isOperator {... */\n    tag_73:\n        /* \"Lottery.sol\":1258:1273  lotteryOperator */\n      and(sub(shl(0xa0, 0x01), 0x01), sload(0x02))\n        /* \"Lottery.sol\":1244:1254  msg.sender */\n      caller\n        /* \"Lottery.sol\":1244:1273  msg.sender == lotteryOperator */\n      eq\n        /* \"Lottery.sol\":1222:1334  require(... */\n      tag_164\n      jumpi\n      mload(0x40)\n      shl(0xe5, 0x461bcd)\n      dup2\n      mstore\n        /* \"#utility.yul\":2006:2008   */\n      0x20\n        /* \"Lottery.sol\":1222:1334  require(... */\n      0x04\n      dup3\n      add\n        /* \"#utility.yul\":1988:2009   */\n      mstore\n        /* \"#utility.yul\":2045:2047   */\n      0x22\n        /* \"#utility.yul\":2025:2043   */\n      0x24\n      dup3\n      add\n        /* \"#utility.yul\":2018:2048   */\n      mstore\n        /* \"#utility.yul\":2084:2118   */\n      0x43616c6c6572206973206e6f7420746865206c6f7474657279206f7065726174\n        /* \"#utility.yul\":2064:2082   */\n      0x44\n      dup3\n      add\n        /* \"#utility.yul\":2057:2119   */\n      mstore\n      shl(0xf1, 0x37b9)\n        /* \"#utility.yul\":2135:2153   */\n      0x64\n      dup3\n      add\n        /* \"#utility.yul\":2128:2160   */\n      mstore\n        /* \"#utility.yul\":2177:2196   */\n      0x84\n      add\n        /* \"Lottery.sol\":1222:1334  require(... */\n      tag_158\n        /* \"#utility.yul\":1804:2202   */\n      jump\n        /* \"Lottery.sol\":1222:1334  require(... */\n    tag_164:\n        /* \"Lottery.sol\":4745:4752  tickets */\n      0x0b\n        /* \"Lottery.sol\":4745:4759  tickets.length */\n      sload\n        /* \"Lottery.sol\":4737:4793  require(tickets.length > 0, \"No tickets were purchased\") */\n      tag_167\n      jumpi\n      mload(0x40)\n      shl(0xe5, 0x461bcd)\n      dup2\n      mstore\n        /* \"#utility.yul\":2409:2411   */\n      0x20\n        /* \"Lottery.sol\":4737:4793  require(tickets.length > 0, \"No tickets were purchased\") */\n      0x04\n      dup3\n      add\n        /* \"#utility.yul\":2391:2412   */\n      mstore\n        /* \"#utility.yul\":2448:2450   */\n      0x19\n        /* \"#utility.yul\":2428:2446   */\n      0x24\n      dup3\n      add\n        /* \"#utility.yul\":2421:2451   */\n      mstore\n        /* \"#utility.yul\":2487:2514   */\n      0x4e6f207469636b65747320776572652070757263686173656400000000000000\n        /* \"#utility.yul\":2467:2485   */\n      0x44\n      dup3\n      add\n        /* \"#utility.yul\":2460:2515   */\n      mstore\n        /* \"#utility.yul\":2532:2550   */\n      0x64\n      add\n        /* \"Lottery.sol\":4737:4793  require(tickets.length > 0, \"No tickets were purchased\") */\n      tag_158\n        /* \"#utility.yul\":2207:2556   */\n      jump\n        /* \"Lottery.sol\":4737:4793  require(tickets.length > 0, \"No tickets were purchased\") */\n    tag_167:\n        /* \"Lottery.sol\":4849:4856  tickets */\n      0x0b\n        /* \"Lottery.sol\":4849:4863  tickets.length */\n      sload\n        /* \"Lottery.sol\":4804:4821  bytes32 blockHash */\n      0x00\n      swap1\n        /* \"Lottery.sol\":4834:4863  block.number - tickets.length */\n      tag_170\n      swap1\n        /* \"Lottery.sol\":4834:4846  block.number */\n      number\n        /* \"Lottery.sol\":4834:4863  block.number - tickets.length */\n      tag_171\n      jump\t// in\n    tag_170:\n        /* \"Lottery.sol\":4928:4972  abi.encodePacked(block.timestamp, blockHash) */\n      0x40\n      dup1\n      mload\n        /* \"Lottery.sol\":4945:4960  block.timestamp */\n      timestamp\n        /* \"Lottery.sol\":4928:4972  abi.encodePacked(block.timestamp, blockHash) */\n      0x20\n      dup3\n      add\n        /* \"#utility.yul\":2983:3002   */\n      mstore\n        /* \"Lottery.sol\":4824:4864  blockhash(block.number - tickets.length) */\n      swap2\n      blockhash\n        /* \"#utility.yul\":3018:3030   */\n      swap1\n      dup3\n      add\n        /* \"#utility.yul\":3011:3039   */\n      dup2\n      swap1\n      mstore\n        /* \"Lottery.sol\":4824:4864  blockhash(block.number - tickets.length) */\n      swap2\n      pop\n        /* \"Lottery.sol\":4874:4894  uint256 randomNumber */\n      0x00\n      swap1\n        /* \"#utility.yul\":3055:3067   */\n      0x60\n      add\n        /* \"Lottery.sol\":4928:4972  abi.encodePacked(block.timestamp, blockHash) */\n      0x40\n      dup1\n      mload\n      not(0x1f)\n      dup2\n      dup5\n      sub\n      add\n      dup2\n      mstore\n      swap2\n      swap1\n      mstore\n        /* \"Lottery.sol\":4918:4973  keccak256(abi.encodePacked(block.timestamp, blockHash)) */\n      dup1\n      mload\n        /* \"Lottery.sol\":4928:4972  abi.encodePacked(block.timestamp, blockHash) */\n      0x20\n        /* \"Lottery.sol\":4918:4973  keccak256(abi.encodePacked(block.timestamp, blockHash)) */\n      swap1\n      swap2\n      add\n      keccak256\n        /* \"Lottery.sol\":5032:5039  tickets */\n      0x0b\n        /* \"Lottery.sol\":5032:5046  tickets.length */\n      sload\n        /* \"Lottery.sol\":4918:4973  keccak256(abi.encodePacked(block.timestamp, blockHash)) */\n      swap1\n      swap2\n      pop\n        /* \"Lottery.sol\":4897:4983  uint256(... */\n      0x00\n      swap1\n        /* \"Lottery.sol\":5017:5046  randomNumber % tickets.length */\n      tag_174\n      swap1\n        /* \"Lottery.sol\":4918:4973  keccak256(abi.encodePacked(block.timestamp, blockHash)) */\n      dup4\n        /* \"Lottery.sol\":5017:5046  randomNumber % tickets.length */\n      tag_175\n      jump\t// in\n    tag_174:\n        /* \"Lottery.sol\":4993:5046  uint256 winningTicket = randomNumber % tickets.length */\n      swap1\n      pop\n        /* \"Lottery.sol\":5057:5071  address winner */\n      0x00\n        /* \"Lottery.sol\":5074:5081  tickets */\n      0x0b\n        /* \"Lottery.sol\":5082:5095  winningTicket */\n      dup3\n        /* \"Lottery.sol\":5074:5096  tickets[winningTicket] */\n      dup2\n      sload\n      dup2\n      lt\n      tag_177\n      jumpi\n      tag_177\n      tag_178\n      jump\t// in\n    tag_177:\n      0x00\n      swap2\n      dup3\n      mstore\n      0x20\n      dup3\n      keccak256\n      add\n      sload\n        /* \"Lottery.sol\":5106:5116  lastWinner */\n      0x04\n        /* \"Lottery.sol\":5106:5125  lastWinner = winner */\n      dup1\n      sload\n      not(sub(shl(0xa0, 0x01), 0x01))\n      and\n      sub(shl(0xa0, 0x01), 0x01)\n        /* \"Lottery.sol\":5074:5096  tickets[winningTicket] */\n      swap1\n      swap3\n      and\n        /* \"Lottery.sol\":5106:5125  lastWinner = winner */\n      swap2\n      dup3\n      or\n      swap1\n      sstore\n        /* \"Lottery.sol\":5174:5185  ticketPrice */\n      swap1\n      sload\n        /* \"Lottery.sol\":5074:5096  tickets[winningTicket] */\n      swap1\n      swap2\n      pop\n        /* \"Lottery.sol\":5174:5204  ticketPrice - ticketCommission */\n      tag_180\n      swap1\n        /* \"Lottery.sol\":312:323  0.001 ether */\n      0x038d7ea4c68000\n      swap1\n        /* \"Lottery.sol\":5174:5204  ticketPrice - ticketCommission */\n      tag_171\n      jump\t// in\n    tag_180:\n        /* \"Lottery.sol\":5156:5163  tickets */\n      0x0b\n        /* \"Lottery.sol\":5156:5170  tickets.length */\n      sload\n        /* \"Lottery.sol\":5156:5205  tickets.length * (ticketPrice - ticketCommission) */\n      tag_181\n      swap2\n      swap1\n      tag_182\n      jump\t// in\n    tag_181:\n      sub(shl(0xa0, 0x01), 0x01)\n        /* \"Lottery.sol\":5135:5151  winnings[winner] */\n      dup3\n      and\n      0x00\n      swap1\n      dup2\n      mstore\n        /* \"Lottery.sol\":5135:5143  winnings */\n      0x0a\n        /* \"Lottery.sol\":5135:5151  winnings[winner] */\n      0x20\n      mstore\n      0x40\n      dup2\n      keccak256\n        /* \"Lottery.sol\":5135:5206  winnings[winner] += (tickets.length * (ticketPrice - ticketCommission)) */\n      dup1\n      sload\n        /* \"Lottery.sol\":5135:5151  winnings[winner] */\n      swap1\n      swap2\n      swap1\n        /* \"Lottery.sol\":5135:5206  winnings[winner] += (tickets.length * (ticketPrice - ticketCommission)) */\n      tag_183\n      swap1\n      dup5\n      swap1\n      tag_184\n      jump\t// in\n    tag_183:\n      swap1\n      swap2\n      sstore\n      pop\n      pop\n      sub(shl(0xa0, 0x01), 0x01)\n        /* \"Lottery.sol\":5235:5251  winnings[winner] */\n      dup2\n      and\n      0x00\n      swap1\n      dup2\n      mstore\n        /* \"Lottery.sol\":5235:5243  winnings */\n      0x0a\n        /* \"Lottery.sol\":5235:5251  winnings[winner] */\n      0x20\n      mstore\n      0x40\n      swap1\n      keccak256\n      sload\n        /* \"Lottery.sol\":5216:5232  lastWinnerAmount */\n      0x05\n        /* \"Lottery.sol\":5216:5251  lastWinnerAmount = winnings[winner] */\n      sstore\n        /* \"Lottery.sol\":5289:5296  tickets */\n      0x0b\n        /* \"Lottery.sol\":5289:5303  tickets.length */\n      sload\n        /* \"Lottery.sol\":5289:5322  tickets.length * ticketCommission */\n      tag_185\n      swap1\n        /* \"Lottery.sol\":312:323  0.001 ether */\n      0x038d7ea4c68000\n      swap1\n        /* \"Lottery.sol\":5289:5322  tickets.length * ticketCommission */\n      tag_182\n      jump\t// in\n    tag_185:\n        /* \"Lottery.sol\":5261:5284  operatorTotalCommission */\n      0x03\n      0x00\n        /* \"Lottery.sol\":5261:5323  operatorTotalCommission += (tickets.length * ticketCommission) */\n      dup3\n      dup3\n      sload\n      tag_186\n      swap2\n      swap1\n      tag_184\n      jump\t// in\n    tag_186:\n      swap1\n      swap2\n      sstore\n      pop\n        /* \"Lottery.sol\":5333:5347  delete tickets */\n      tag_187\n      swap1\n      pop\n        /* \"Lottery.sol\":5340:5347  tickets */\n      0x0b\n      0x00\n        /* \"Lottery.sol\":5333:5347  delete tickets */\n      tag_188\n      jump\t// in\n    tag_187:\n        /* \"Lottery.sol\":5370:5396  block.timestamp + duration */\n      tag_189\n        /* \"Lottery.sol\":388:401  43200 minutes */\n      0x278d00\n        /* \"Lottery.sol\":5370:5385  block.timestamp */\n      timestamp\n        /* \"Lottery.sol\":5370:5396  block.timestamp + duration */\n      tag_184\n      jump\t// in\n    tag_189:\n        /* \"Lottery.sol\":5357:5367  expiration */\n      0x01\n        /* \"Lottery.sol\":5357:5396  expiration = block.timestamp + duration */\n      sstore\n      pop\n      pop\n      pop\n      pop\n        /* \"Lottery.sol\":4681:5403  function DrawWinnerTicket() public isOperator {... */\n      jump\t// out\n        /* \"Lottery.sol\":1648:1740  function getTickets() public view returns (address[] memory) {... */\n    tag_76:\n        /* \"Lottery.sol\":1691:1707  address[] memory */\n      0x60\n        /* \"Lottery.sol\":1726:1733  tickets */\n      0x0b\n        /* \"Lottery.sol\":1719:1733  return tickets */\n      dup1\n      sload\n      dup1\n      0x20\n      mul\n      0x20\n      add\n      mload(0x40)\n      swap1\n      dup2\n      add\n      0x40\n      mstore\n      dup1\n      swap3\n      swap2\n      swap1\n      dup2\n      dup2\n      mstore\n      0x20\n      add\n      dup3\n      dup1\n      sload\n      dup1\n      iszero\n      tag_191\n      jumpi\n      0x20\n      mul\n      dup3\n      add\n      swap2\n      swap1\n      0x00\n      mstore\n      keccak256(0x00, 0x20)\n      swap1\n    tag_192:\n      dup2\n      sload\n      sub(shl(0xa0, 0x01), 0x01)\n      and\n      dup2\n      mstore\n      0x01\n      swap1\n      swap2\n      add\n      swap1\n      0x20\n      add\n      dup1\n      dup4\n      gt\n      tag_192\n      jumpi\n    tag_191:\n      pop\n      pop\n      pop\n      pop\n      pop\n      swap1\n      pop\n        /* \"Lottery.sol\":1648:1740  function getTickets() public view returns (address[] memory) {... */\n      swap1\n      jump\t// out\n        /* \"Lottery.sol\":1071:1095  address[] public tickets */\n    tag_83:\n      0x0b\n      dup2\n      dup2\n      sload\n      dup2\n      lt\n      tag_193\n      jumpi\n      0x00\n      dup1\n      revert\n    tag_193:\n      0x00\n      swap2\n      dup3\n      mstore\n      0x20\n      swap1\n      swap2\n      keccak256\n      add\n      sload\n      sub(shl(0xa0, 0x01), 0x01)\n      and\n      swap1\n      pop\n      dup2\n      jump\t// out\n        /* \"Lottery.sol\":5831:6062  function WithdrawWinnings() public isWinner {... */\n    tag_96:\n        /* \"Lottery.sol\":6748:6758  msg.sender */\n      caller\n        /* \"Lottery.sol\":6716:6720  bool */\n      0x00\n        /* \"Lottery.sol\":6739:6759  winnings[msg.sender] */\n      swap1\n      dup2\n      mstore\n        /* \"Lottery.sol\":6739:6747  winnings */\n      0x0a\n        /* \"Lottery.sol\":6739:6759  winnings[msg.sender] */\n      0x20\n      mstore\n      0x40\n      swap1\n      keccak256\n      sload\n        /* \"Lottery.sol\":1435:1480  require(IsWinner(), \"Caller is not a winner\") */\n      tag_197\n      jumpi\n      mload(0x40)\n      shl(0xe5, 0x461bcd)\n      dup2\n      mstore\n        /* \"#utility.yul\":3964:3966   */\n      0x20\n        /* \"Lottery.sol\":1435:1480  require(IsWinner(), \"Caller is not a winner\") */\n      0x04\n      dup3\n      add\n        /* \"#utility.yul\":3946:3967   */\n      mstore\n        /* \"#utility.yul\":4003:4005   */\n      0x16\n        /* \"#utility.yul\":3983:4001   */\n      0x24\n      dup3\n      add\n        /* \"#utility.yul\":3976:4006   */\n      mstore\n        /* \"#utility.yul\":4042:4066   */\n      0x43616c6c6572206973206e6f7420612077696e6e657200000000000000000000\n        /* \"#utility.yul\":4022:4040   */\n      0x44\n      dup3\n      add\n        /* \"#utility.yul\":4015:4067   */\n      mstore\n        /* \"#utility.yul\":4084:4102   */\n      0x64\n      add\n        /* \"Lottery.sol\":1435:1480  require(IsWinner(), \"Caller is not a winner\") */\n      tag_158\n        /* \"#utility.yul\":3762:4108   */\n      jump\n        /* \"Lottery.sol\":1435:1480  require(IsWinner(), \"Caller is not a winner\") */\n    tag_197:\n        /* \"Lottery.sol\":5918:5928  msg.sender */\n      caller\n        /* \"Lottery.sol\":5885:5907  address payable winner */\n      0x00\n        /* \"Lottery.sol\":5966:5982  winnings[winner] */\n      dup2\n      dup2\n      mstore\n        /* \"Lottery.sol\":5966:5974  winnings */\n      0x0a\n        /* \"Lottery.sol\":5966:5982  winnings[winner] */\n      0x20\n      mstore\n      0x40\n      dup1\n      dup3\n      keccak256\n      dup1\n      sload\n        /* \"Lottery.sol\":5992:6012  winnings[winner] = 0 */\n      swap1\n      dup4\n      swap1\n      sstore\n        /* \"Lottery.sol\":6023:6055  winner.transfer(reward2Transfer) */\n      swap1\n      mload\n        /* \"Lottery.sol\":5966:5982  winnings[winner] */\n      swap1\n      swap2\n        /* \"Lottery.sol\":5918:5928  msg.sender */\n      dup4\n      swap2\n        /* \"Lottery.sol\":6023:6055  winner.transfer(reward2Transfer) */\n      dup4\n      iszero\n      0x08fc\n      mul\n      swap2\n        /* \"Lottery.sol\":5966:5982  winnings[winner] */\n      dup5\n      swap2\n        /* \"Lottery.sol\":6023:6055  winner.transfer(reward2Transfer) */\n      swap1\n      dup2\n        /* \"Lottery.sol\":5885:5907  address payable winner */\n      dup2\n        /* \"Lottery.sol\":6023:6055  winner.transfer(reward2Transfer) */\n      dup2\n        /* \"Lottery.sol\":5966:5982  winnings[winner] */\n      dup6\n        /* \"Lottery.sol\":5918:5928  msg.sender */\n      dup9\n        /* \"Lottery.sol\":6023:6055  winner.transfer(reward2Transfer) */\n      dup9\n      call\n      swap4\n      pop\n      pop\n      pop\n      pop\n      iszero\n      dup1\n      iszero\n      tag_162\n      jumpi\n      returndatasize\n      0x00\n      dup1\n      returndatacopy\n      revert(0x00, returndatasize)\n        /* \"Lottery.sol\":1865:2436  function BuyTickets() public payable {... */\n    tag_102:\n        /* \"Lottery.sol\":1945:1956  ticketPrice */\n      sload(0x00)\n        /* \"Lottery.sol\":1933:1956  msg.value % ticketPrice */\n      tag_204\n      swap1\n        /* \"Lottery.sol\":1933:1942  msg.value */\n      callvalue\n        /* \"Lottery.sol\":1933:1956  msg.value % ticketPrice */\n      tag_175\n      jump\t// in\n    tag_204:\n        /* \"Lottery.sol\":1960:1961  0 */\n      0x00\n        /* \"Lottery.sol\":1933:1961  msg.value % ticketPrice == 0 */\n      eq\n        /* \"Lottery.sol\":2056:2085  Strings.toString(ticketPrice) */\n      tag_205\n        /* \"Lottery.sol\":2073:2084  ticketPrice */\n      sload(0x00)\n        /* \"Lottery.sol\":2056:2072  Strings.toString */\n      tag_206\n        /* \"Lottery.sol\":2056:2085  Strings.toString(ticketPrice) */\n      jump\t// in\n    tag_205:\n        /* \"Lottery.sol\":1975:2125  string.concat(... */\n      add(0x20, mload(0x40))\n      tag_207\n      swap2\n      swap1\n      tag_208\n      jump\t// in\n    tag_207:\n      mload(0x40)\n      0x20\n      dup2\n      dup4\n      sub\n      sub\n      dup2\n      mstore\n      swap1\n      0x40\n      mstore\n        /* \"Lottery.sol\":1912:2135  require(... */\n      swap1\n      tag_209\n      jumpi\n      mload(0x40)\n      shl(0xe5, 0x461bcd)\n      dup2\n      mstore\n      0x04\n      add\n      tag_158\n      swap2\n      swap1\n      tag_211\n      jump\t// in\n    tag_209:\n      pop\n        /* \"Lottery.sol\":2145:2170  uint256 numOfTicketsToBuy */\n      0x00\n        /* \"Lottery.sol\":2185:2196  ticketPrice */\n      dup1\n      sload\n        /* \"Lottery.sol\":2173:2196  msg.value / ticketPrice */\n      tag_212\n      swap1\n        /* \"Lottery.sol\":2173:2182  msg.value */\n      callvalue\n        /* \"Lottery.sol\":2173:2196  msg.value / ticketPrice */\n      tag_213\n      jump\t// in\n    tag_212:\n        /* \"Lottery.sol\":2145:2196  uint256 numOfTicketsToBuy = msg.value / ticketPrice */\n      swap1\n      pop\n        /* \"Lottery.sol\":2249:2267  RemainingTickets() */\n      tag_214\n        /* \"Lottery.sol\":2249:2265  RemainingTickets */\n      tag_105\n        /* \"Lottery.sol\":2249:2267  RemainingTickets() */\n      jump\t// in\n    tag_214:\n        /* \"Lottery.sol\":2228:2245  numOfTicketsToBuy */\n      dup2\n        /* \"Lottery.sol\":2228:2267  numOfTicketsToBuy <= RemainingTickets() */\n      gt\n      iszero\n        /* \"Lottery.sol\":2207:2322  require(... */\n      tag_215\n      jumpi\n      mload(0x40)\n      shl(0xe5, 0x461bcd)\n      dup2\n      mstore\n        /* \"#utility.yul\":5702:5704   */\n      0x20\n        /* \"Lottery.sol\":2207:2322  require(... */\n      0x04\n      dup3\n      add\n        /* \"#utility.yul\":5684:5705   */\n      mstore\n        /* \"#utility.yul\":5741:5743   */\n      0x1d\n        /* \"#utility.yul\":5721:5739   */\n      0x24\n      dup3\n      add\n        /* \"#utility.yul\":5714:5744   */\n      mstore\n        /* \"#utility.yul\":5780:5811   */\n      0x4e6f7420656e6f756768207469636b65747320617661696c61626c652e000000\n        /* \"#utility.yul\":5760:5778   */\n      0x44\n      dup3\n      add\n        /* \"#utility.yul\":5753:5812   */\n      mstore\n        /* \"#utility.yul\":5829:5847   */\n      0x64\n      add\n        /* \"Lottery.sol\":2207:2322  require(... */\n      tag_158\n        /* \"#utility.yul\":5500:5853   */\n      jump\n        /* \"Lottery.sol\":2207:2322  require(... */\n    tag_215:\n        /* \"Lottery.sol\":2338:2347  uint256 i */\n      0x00\n        /* \"Lottery.sol\":2333:2430  for (uint256 i = 0; i < numOfTicketsToBuy; i++) {... */\n    tag_218:\n        /* \"Lottery.sol\":2357:2374  numOfTicketsToBuy */\n      dup2\n        /* \"Lottery.sol\":2353:2354  i */\n      dup2\n        /* \"Lottery.sol\":2353:2374  i < numOfTicketsToBuy */\n      lt\n        /* \"Lottery.sol\":2333:2430  for (uint256 i = 0; i < numOfTicketsToBuy; i++) {... */\n      iszero\n      tag_219\n      jumpi\n        /* \"Lottery.sol\":2395:2402  tickets */\n      0x0b\n        /* \"Lottery.sol\":2395:2419  tickets.push(msg.sender) */\n      dup1\n      sload\n      0x01\n      dup2\n      add\n      dup3\n      sstore\n      0x00\n      swap2\n      swap1\n      swap2\n      mstore\n      0x0175b7a638427703f0dbe7bb9bbf987a2551717b34e79f33b5b1008d1fa01db9\n      add\n      dup1\n      sload\n      not(sub(shl(0xa0, 0x01), 0x01))\n      and\n        /* \"Lottery.sol\":2408:2418  msg.sender */\n      caller\n        /* \"Lottery.sol\":2395:2419  tickets.push(msg.sender) */\n      or\n      swap1\n      sstore\n        /* \"Lottery.sol\":2376:2379  i++ */\n      dup1\n      tag_222\n      dup2\n      tag_223\n      jump\t// in\n    tag_222:\n      swap2\n      pop\n      pop\n        /* \"Lottery.sol\":2333:2430  for (uint256 i = 0; i < numOfTicketsToBuy; i++) {... */\n      jump(tag_218)\n    tag_219:\n      pop\n        /* \"Lottery.sol\":1902:2436  {... */\n      pop\n        /* \"Lottery.sol\":1865:2436  function BuyTickets() public payable {... */\n      jump\t// out\n        /* \"Lottery.sol\":6896:7005  function RemainingTickets() public view returns (uint256) {... */\n    tag_105:\n        /* \"Lottery.sol\":6984:6991  tickets */\n      0x0b\n        /* \"Lottery.sol\":6984:6998  tickets.length */\n      sload\n        /* \"Lottery.sol\":6945:6952  uint256 */\n      0x00\n      swap1\n        /* \"Lottery.sol\":6971:6998  maxTickets - tickets.length */\n      tag_225\n      swap1\n        /* \"Lottery.sol\":227:232  10000 */\n      0x2710\n        /* \"Lottery.sol\":6971:6998  maxTickets - tickets.length */\n      tag_171\n      jump\t// in\n    tag_225:\n        /* \"Lottery.sol\":6964:6998  return maxTickets - tickets.length */\n      swap1\n      pop\n        /* \"Lottery.sol\":6896:7005  function RemainingTickets() public view returns (uint256) {... */\n      swap1\n      jump\t// out\n        /* \"Lottery.sol\":3207:3960  function BuyTicketsBonus2() public payable {... */\n    tag_113:\n        /* \"Lottery.sol\":3274:3285  0.006 ether */\n      0x1550f7dca70000\n        /* \"Lottery.sol\":3260:3271  ticketPrice */\n      0x00\n        /* \"Lottery.sol\":3260:3285  ticketPrice = 0.006 ether */\n      dup2\n      swap1\n      sstore\n        /* \"Lottery.sol\":3316:3339  msg.value % ticketPrice */\n      tag_228\n      swap1\n        /* \"Lottery.sol\":3316:3325  msg.value */\n      callvalue\n        /* \"Lottery.sol\":3316:3339  msg.value % ticketPrice */\n      tag_175\n      jump\t// in\n    tag_228:\n        /* \"Lottery.sol\":3343:3344  0 */\n      0x00\n        /* \"Lottery.sol\":3316:3344  msg.value % ticketPrice == 0 */\n      eq\n        /* \"Lottery.sol\":3439:3468  Strings.toString(ticketPrice) */\n      tag_229\n        /* \"Lottery.sol\":3456:3467  ticketPrice */\n      sload(0x00)\n        /* \"Lottery.sol\":3439:3455  Strings.toString */\n      tag_206\n        /* \"Lottery.sol\":3439:3468  Strings.toString(ticketPrice) */\n      jump\t// in\n    tag_229:\n        /* \"Lottery.sol\":3358:3508  string.concat(... */\n      add(0x20, mload(0x40))\n      tag_230\n      swap2\n      swap1\n      tag_208\n      jump\t// in\n    tag_230:\n      mload(0x40)\n      0x20\n      dup2\n      dup4\n      sub\n      sub\n      dup2\n      mstore\n      swap1\n      0x40\n      mstore\n        /* \"Lottery.sol\":3295:3518  require(... */\n      swap1\n      tag_231\n      jumpi\n      mload(0x40)\n      shl(0xe5, 0x461bcd)\n      dup2\n      mstore\n      0x04\n      add\n      tag_158\n      swap2\n      swap1\n      tag_211\n      jump\t// in\n    tag_231:\n      pop\n        /* \"Lottery.sol\":3528:3553  uint256 numOfTicketsToBuy */\n      0x00\n        /* \"Lottery.sol\":3568:3579  ticketPrice */\n      dup1\n      sload\n        /* \"Lottery.sol\":3556:3579  msg.value / ticketPrice */\n      tag_233\n      swap1\n        /* \"Lottery.sol\":3556:3565  msg.value */\n      callvalue\n        /* \"Lottery.sol\":3556:3579  msg.value / ticketPrice */\n      tag_213\n      jump\t// in\n    tag_233:\n        /* \"Lottery.sol\":3528:3579  uint256 numOfTicketsToBuy = msg.value / ticketPrice */\n      swap1\n      pop\n        /* \"Lottery.sol\":3632:3650  RemainingTickets() */\n      tag_234\n        /* \"Lottery.sol\":3632:3648  RemainingTickets */\n      tag_105\n        /* \"Lottery.sol\":3632:3650  RemainingTickets() */\n      jump\t// in\n    tag_234:\n        /* \"Lottery.sol\":3611:3628  numOfTicketsToBuy */\n      dup2\n        /* \"Lottery.sol\":3611:3650  numOfTicketsToBuy <= RemainingTickets() */\n      gt\n      iszero\n        /* \"Lottery.sol\":3590:3705  require(... */\n      tag_235\n      jumpi\n      mload(0x40)\n      shl(0xe5, 0x461bcd)\n      dup2\n      mstore\n        /* \"#utility.yul\":5702:5704   */\n      0x20\n        /* \"Lottery.sol\":3590:3705  require(... */\n      0x04\n      dup3\n      add\n        /* \"#utility.yul\":5684:5705   */\n      mstore\n        /* \"#utility.yul\":5741:5743   */\n      0x1d\n        /* \"#utility.yul\":5721:5739   */\n      0x24\n      dup3\n      add\n        /* \"#utility.yul\":5714:5744   */\n      mstore\n        /* \"#utility.yul\":5780:5811   */\n      0x4e6f7420656e6f756768207469636b65747320617661696c61626c652e000000\n        /* \"#utility.yul\":5760:5778   */\n      0x44\n      dup3\n      add\n        /* \"#utility.yul\":5753:5812   */\n      mstore\n        /* \"#utility.yul\":5829:5847   */\n      0x64\n      add\n        /* \"Lottery.sol\":3590:3705  require(... */\n      tag_158\n        /* \"#utility.yul\":5500:5853   */\n      jump\n        /* \"Lottery.sol\":3590:3705  require(... */\n    tag_235:\n        /* \"Lottery.sol\":3737:3754  numOfTicketsToBuy */\n      dup1\n        /* \"Lottery.sol\":3758:3759  5 */\n      0x05\n        /* \"Lottery.sol\":3737:3759  numOfTicketsToBuy == 5 */\n      eq\n        /* \"Lottery.sol\":3716:3837  require(... */\n      tag_237\n      jumpi\n      mload(0x40)\n      shl(0xe5, 0x461bcd)\n      dup2\n      mstore\n        /* \"#utility.yul\":6200:6202   */\n      0x20\n        /* \"Lottery.sol\":3716:3837  require(... */\n      0x04\n      dup3\n      add\n        /* \"#utility.yul\":6182:6203   */\n      mstore\n        /* \"#utility.yul\":6239:6241   */\n      0x34\n        /* \"#utility.yul\":6219:6237   */\n      0x24\n      dup3\n      add\n        /* \"#utility.yul\":6212:6242   */\n      mstore\n        /* \"#utility.yul\":6278:6312   */\n      0x596f752063616e206f6e6c79206765742035207469636b657473206174206120\n        /* \"#utility.yul\":6258:6276   */\n      0x44\n      dup3\n      add\n        /* \"#utility.yul\":6251:6313   */\n      mstore\n      shl(0x61, 0x3a34b6b2903bb4ba34103a3434b99037b33332b9)\n        /* \"#utility.yul\":6329:6347   */\n      0x64\n      dup3\n      add\n        /* \"#utility.yul\":6322:6372   */\n      mstore\n        /* \"#utility.yul\":6389:6408   */\n      0x84\n      add\n        /* \"Lottery.sol\":3716:3837  require(... */\n      tag_158\n        /* \"#utility.yul\":5998:6414   */\n      jump\n        /* \"Lottery.sol\":3716:3837  require(... */\n    tag_237:\n        /* \"Lottery.sol\":3853:3862  uint256 i */\n      0x00\n        /* \"Lottery.sol\":3848:3945  for (uint256 i = 0; i < numOfTicketsToBuy; i++) {... */\n    tag_240:\n        /* \"Lottery.sol\":3872:3889  numOfTicketsToBuy */\n      dup2\n        /* \"Lottery.sol\":3868:3869  i */\n      dup2\n        /* \"Lottery.sol\":3868:3889  i < numOfTicketsToBuy */\n      lt\n        /* \"Lottery.sol\":3848:3945  for (uint256 i = 0; i < numOfTicketsToBuy; i++) {... */\n      iszero\n      tag_219\n      jumpi\n        /* \"Lottery.sol\":3910:3917  tickets */\n      0x0b\n        /* \"Lottery.sol\":3910:3934  tickets.push(msg.sender) */\n      dup1\n      sload\n      0x01\n      dup2\n      add\n      dup3\n      sstore\n      0x00\n      swap2\n      swap1\n      swap2\n      mstore\n      0x0175b7a638427703f0dbe7bb9bbf987a2551717b34e79f33b5b1008d1fa01db9\n      add\n      dup1\n      sload\n      not(sub(shl(0xa0, 0x01), 0x01))\n      and\n        /* \"Lottery.sol\":3923:3933  msg.sender */\n      caller\n        /* \"Lottery.sol\":3910:3934  tickets.push(msg.sender) */\n      or\n      swap1\n      sstore\n        /* \"Lottery.sol\":3891:3894  i++ */\n      dup1\n      tag_244\n      dup2\n      tag_223\n      jump\t// in\n    tag_244:\n      swap2\n      pop\n      pop\n        /* \"Lottery.sol\":3848:3945  for (uint256 i = 0; i < numOfTicketsToBuy; i++) {... */\n      jump(tag_240)\n        /* \"Lottery.sol\":3964:4667  function BuyTicketsBonus3() public payable {... */\n    tag_119:\n        /* \"Lottery.sol\":4050:4061  ticketPrice */\n      sload(0x00)\n        /* \"Lottery.sol\":4038:4061  msg.value % ticketPrice */\n      tag_246\n      swap1\n        /* \"Lottery.sol\":4038:4047  msg.value */\n      callvalue\n        /* \"Lottery.sol\":4038:4061  msg.value % ticketPrice */\n      tag_175\n      jump\t// in\n    tag_246:\n        /* \"Lottery.sol\":4065:4066  0 */\n      0x00\n        /* \"Lottery.sol\":4038:4066  msg.value % ticketPrice == 0 */\n      eq\n        /* \"Lottery.sol\":4161:4190  Strings.toString(ticketPrice) */\n      tag_247\n        /* \"Lottery.sol\":4178:4189  ticketPrice */\n      sload(0x00)\n        /* \"Lottery.sol\":4161:4177  Strings.toString */\n      tag_206\n        /* \"Lottery.sol\":4161:4190  Strings.toString(ticketPrice) */\n      jump\t// in\n    tag_247:\n        /* \"Lottery.sol\":4080:4230  string.concat(... */\n      add(0x20, mload(0x40))\n      tag_248\n      swap2\n      swap1\n      tag_208\n      jump\t// in\n    tag_248:\n      mload(0x40)\n      0x20\n      dup2\n      dup4\n      sub\n      sub\n      dup2\n      mstore\n      swap1\n      0x40\n      mstore\n        /* \"Lottery.sol\":4017:4240  require(... */\n      swap1\n      tag_249\n      jumpi\n      mload(0x40)\n      shl(0xe5, 0x461bcd)\n      dup2\n      mstore\n      0x04\n      add\n      tag_158\n      swap2\n      swap1\n      tag_211\n      jump\t// in\n    tag_249:\n      pop\n        /* \"Lottery.sol\":4250:4275  uint256 numOfTicketsToBuy */\n      0x00\n        /* \"Lottery.sol\":4290:4301  ticketPrice */\n      dup1\n      sload\n        /* \"Lottery.sol\":4278:4301  msg.value / ticketPrice */\n      tag_251\n      swap1\n        /* \"Lottery.sol\":4278:4287  msg.value */\n      callvalue\n        /* \"Lottery.sol\":4278:4301  msg.value / ticketPrice */\n      tag_213\n      jump\t// in\n    tag_251:\n        /* \"Lottery.sol\":4250:4301  uint256 numOfTicketsToBuy = msg.value / ticketPrice */\n      swap1\n      pop\n        /* \"Lottery.sol\":4354:4372  RemainingTickets() */\n      tag_252\n        /* \"Lottery.sol\":4354:4370  RemainingTickets */\n      tag_105\n        /* \"Lottery.sol\":4354:4372  RemainingTickets() */\n      jump\t// in\n    tag_252:\n        /* \"Lottery.sol\":4333:4350  numOfTicketsToBuy */\n      dup2\n        /* \"Lottery.sol\":4333:4372  numOfTicketsToBuy <= RemainingTickets() */\n      gt\n      iszero\n        /* \"Lottery.sol\":4312:4427  require(... */\n      tag_253\n      jumpi\n      mload(0x40)\n      shl(0xe5, 0x461bcd)\n      dup2\n      mstore\n        /* \"#utility.yul\":5702:5704   */\n      0x20\n        /* \"Lottery.sol\":4312:4427  require(... */\n      0x04\n      dup3\n      add\n        /* \"#utility.yul\":5684:5705   */\n      mstore\n        /* \"#utility.yul\":5741:5743   */\n      0x1d\n        /* \"#utility.yul\":5721:5739   */\n      0x24\n      dup3\n      add\n        /* \"#utility.yul\":5714:5744   */\n      mstore\n        /* \"#utility.yul\":5780:5811   */\n      0x4e6f7420656e6f756768207469636b65747320617661696c61626c652e000000\n        /* \"#utility.yul\":5760:5778   */\n      0x44\n      dup3\n      add\n        /* \"#utility.yul\":5753:5812   */\n      mstore\n        /* \"#utility.yul\":5829:5847   */\n      0x64\n      add\n        /* \"Lottery.sol\":4312:4427  require(... */\n      tag_158\n        /* \"#utility.yul\":5500:5853   */\n      jump\n        /* \"Lottery.sol\":4312:4427  require(... */\n    tag_253:\n        /* \"Lottery.sol\":4459:4476  numOfTicketsToBuy */\n      dup1\n        /* \"Lottery.sol\":4480:4481  7 */\n      0x07\n        /* \"Lottery.sol\":4459:4481  numOfTicketsToBuy == 7 */\n      eq\n        /* \"Lottery.sol\":4438:4559  require(... */\n      tag_255\n      jumpi\n      mload(0x40)\n      shl(0xe5, 0x461bcd)\n      dup2\n      mstore\n        /* \"#utility.yul\":6621:6623   */\n      0x20\n        /* \"Lottery.sol\":4438:4559  require(... */\n      0x04\n      dup3\n      add\n        /* \"#utility.yul\":6603:6624   */\n      mstore\n        /* \"#utility.yul\":6660:6662   */\n      0x34\n        /* \"#utility.yul\":6640:6658   */\n      0x24\n      dup3\n      add\n        /* \"#utility.yul\":6633:6663   */\n      mstore\n        /* \"#utility.yul\":6699:6733   */\n      0x596f752063616e206f6e6c79206765742037207469636b657473206174206120\n        /* \"#utility.yul\":6679:6697   */\n      0x44\n      dup3\n      add\n        /* \"#utility.yul\":6672:6734   */\n      mstore\n      shl(0x61, 0x3a34b6b2903bb4ba34103a3434b99037b33332b9)\n        /* \"#utility.yul\":6750:6768   */\n      0x64\n      dup3\n      add\n        /* \"#utility.yul\":6743:6793   */\n      mstore\n        /* \"#utility.yul\":6810:6829   */\n      0x84\n      add\n        /* \"Lottery.sol\":4438:4559  require(... */\n      tag_158\n        /* \"#utility.yul\":6419:6835   */\n      jump\n        /* \"Lottery.sol\":4438:4559  require(... */\n    tag_255:\n        /* \"Lottery.sol\":4575:4584  uint256 i */\n      0x00\n        /* \"Lottery.sol\":4570:4652  for (uint256 i = 0; i < 10; i++) {... */\n    tag_258:\n        /* \"Lottery.sol\":4594:4596  10 */\n      0x0a\n        /* \"Lottery.sol\":4590:4591  i */\n      dup2\n        /* \"Lottery.sol\":4590:4596  i < 10 */\n      lt\n        /* \"Lottery.sol\":4570:4652  for (uint256 i = 0; i < 10; i++) {... */\n      iszero\n      tag_219\n      jumpi\n        /* \"Lottery.sol\":4617:4624  tickets */\n      0x0b\n        /* \"Lottery.sol\":4617:4641  tickets.push(msg.sender) */\n      dup1\n      sload\n      0x01\n      dup2\n      add\n      dup3\n      sstore\n      0x00\n      swap2\n      swap1\n      swap2\n      mstore\n      0x0175b7a638427703f0dbe7bb9bbf987a2551717b34e79f33b5b1008d1fa01db9\n      add\n      dup1\n      sload\n      not(sub(shl(0xa0, 0x01), 0x01))\n      and\n        /* \"Lottery.sol\":4630:4640  msg.sender */\n      caller\n        /* \"Lottery.sol\":4617:4641  tickets.push(msg.sender) */\n      or\n      swap1\n      sstore\n        /* \"Lottery.sol\":4598:4601  i++ */\n      dup1\n      tag_262\n      dup2\n      tag_223\n      jump\t// in\n    tag_262:\n      swap2\n      pop\n      pop\n        /* \"Lottery.sol\":4570:4652  for (uint256 i = 0; i < 10; i++) {... */\n      jump(tag_258)\n        /* \"Lottery.sol\":6068:6401  function RefundAll() public {... */\n    tag_122:\n        /* \"Lottery.sol\":6133:6143  expiration */\n      sload(0x01)\n        /* \"Lottery.sol\":6114:6129  block.timestamp */\n      timestamp\n        /* \"Lottery.sol\":6114:6143  block.timestamp >= expiration */\n      lt\n      iszero\n        /* \"Lottery.sol\":6106:6175  require(block.timestamp >= expiration, \"the lottery not expired yet\") */\n      tag_264\n      jumpi\n      mload(0x40)\n      shl(0xe5, 0x461bcd)\n      dup2\n      mstore\n        /* \"#utility.yul\":7042:7044   */\n      0x20\n        /* \"Lottery.sol\":6106:6175  require(block.timestamp >= expiration, \"the lottery not expired yet\") */\n      0x04\n      dup3\n      add\n        /* \"#utility.yul\":7024:7045   */\n      mstore\n        /* \"#utility.yul\":7081:7083   */\n      0x1b\n        /* \"#utility.yul\":7061:7079   */\n      0x24\n      dup3\n      add\n        /* \"#utility.yul\":7054:7084   */\n      mstore\n        /* \"#utility.yul\":7120:7149   */\n      0x746865206c6f7474657279206e6f742065787069726564207965740000000000\n        /* \"#utility.yul\":7100:7118   */\n      0x44\n      dup3\n      add\n        /* \"#utility.yul\":7093:7150   */\n      mstore\n        /* \"#utility.yul\":7167:7185   */\n      0x64\n      add\n        /* \"Lottery.sol\":6106:6175  require(block.timestamp >= expiration, \"the lottery not expired yet\") */\n      tag_158\n        /* \"#utility.yul\":6840:7191   */\n      jump\n        /* \"Lottery.sol\":6106:6175  require(block.timestamp >= expiration, \"the lottery not expired yet\") */\n    tag_264:\n        /* \"Lottery.sol\":6191:6200  uint256 i */\n      0x00\n        /* \"Lottery.sol\":6186:6371  for (uint256 i = 0; i < tickets.length; i++) {... */\n    tag_267:\n        /* \"Lottery.sol\":6210:6217  tickets */\n      0x0b\n        /* \"Lottery.sol\":6210:6224  tickets.length */\n      sload\n        /* \"Lottery.sol\":6206:6224  i < tickets.length */\n      dup2\n      lt\n        /* \"Lottery.sol\":6186:6371  for (uint256 i = 0; i < tickets.length; i++) {... */\n      iszero\n      tag_268\n      jumpi\n        /* \"Lottery.sol\":6245:6263  address payable to */\n      0x00\n        /* \"Lottery.sol\":6274:6281  tickets */\n      0x0b\n        /* \"Lottery.sol\":6282:6283  i */\n      dup3\n        /* \"Lottery.sol\":6274:6284  tickets[i] */\n      dup2\n      sload\n      dup2\n      lt\n      tag_271\n      jumpi\n      tag_271\n      tag_178\n      jump\t// in\n    tag_271:\n      0x00\n      swap2\n      dup3\n      mstore\n      0x20\n      dup3\n      keccak256\n      add\n      sload\n        /* \"Lottery.sol\":6299:6306  tickets */\n      0x0b\n        /* \"Lottery.sol\":6299:6309  tickets[i] */\n      dup1\n      sload\n      sub(shl(0xa0, 0x01), 0x01)\n        /* \"Lottery.sol\":6274:6284  tickets[i] */\n      swap1\n      swap3\n      and\n      swap4\n      pop\n        /* \"Lottery.sol\":6299:6306  tickets */\n      swap1\n        /* \"Lottery.sol\":6307:6308  i */\n      dup5\n      swap1\n        /* \"Lottery.sol\":6299:6309  tickets[i] */\n      dup2\n      lt\n      tag_274\n      jumpi\n      tag_274\n      tag_178\n      jump\t// in\n    tag_274:\n      0x00\n      swap2\n      dup3\n      mstore\n      0x20\n      dup3\n      keccak256\n      add\n        /* \"Lottery.sol\":6299:6322  tickets[i] = address(0) */\n      dup1\n      sload\n      not(sub(shl(0xa0, 0x01), 0x01))\n      and\n      sub(shl(0xa0, 0x01), 0x01)\n      swap4\n      dup5\n      and\n      or\n      swap1\n      sstore\n        /* \"Lottery.sol\":6348:6359  ticketPrice */\n      dup1\n      sload\n        /* \"Lottery.sol\":6336:6360  to.transfer(ticketPrice) */\n      mload(0x40)\n        /* \"Lottery.sol\":6336:6347  to.transfer */\n      swap3\n      dup5\n      and\n      swap3\n        /* \"Lottery.sol\":6336:6360  to.transfer(ticketPrice) */\n      0x08fc\n      dup3\n      iszero\n      mul\n      swap3\n      dup2\n        /* \"Lottery.sol\":6299:6309  tickets[i] */\n      dup2\n        /* \"Lottery.sol\":6336:6360  to.transfer(ticketPrice) */\n      dup2\n        /* \"Lottery.sol\":6348:6359  ticketPrice */\n      dup6\n        /* \"Lottery.sol\":6336:6347  to.transfer */\n      dup9\n        /* \"Lottery.sol\":6336:6360  to.transfer(ticketPrice) */\n      dup9\n      call\n      swap4\n      pop\n      pop\n      pop\n      pop\n      iszero\n      dup1\n      iszero\n      tag_277\n      jumpi\n      returndatasize\n      0x00\n      dup1\n      returndatacopy\n      revert(0x00, returndatasize)\n    tag_277:\n      pop\n        /* \"Lottery.sol\":6231:6371  {... */\n      pop\n        /* \"Lottery.sol\":6226:6229  i++ */\n      dup1\n      dup1\n      tag_278\n      swap1\n      tag_223\n      jump\t// in\n    tag_278:\n      swap2\n      pop\n      pop\n        /* \"Lottery.sol\":6186:6371  for (uint256 i = 0; i < tickets.length; i++) {... */\n      jump(tag_267)\n    tag_268:\n      pop\n        /* \"Lottery.sol\":6380:6394  delete tickets */\n      tag_279\n        /* \"Lottery.sol\":6387:6394  tickets */\n      0x0b\n      0x00\n        /* \"Lottery.sol\":6380:6394  delete tickets */\n      tag_188\n      jump\t// in\n    tag_279:\n        /* \"Lottery.sol\":6068:6401  function RefundAll() public {... */\n      jump\t// out\n        /* \"Lottery.sol\":2443:3195  function BuyTicketsBonus() public payable {... */\n    tag_124:\n        /* \"Lottery.sol\":2509:2520  0.009 ether */\n      0x1ff973cafa8000\n        /* \"Lottery.sol\":2495:2506  ticketPrice */\n      0x00\n        /* \"Lottery.sol\":2495:2520  ticketPrice = 0.009 ether */\n      dup2\n      swap1\n      sstore\n        /* \"Lottery.sol\":2551:2574  msg.value % ticketPrice */\n      tag_281\n      swap1\n        /* \"Lottery.sol\":2551:2560  msg.value */\n      callvalue\n        /* \"Lottery.sol\":2551:2574  msg.value % ticketPrice */\n      tag_175\n      jump\t// in\n    tag_281:\n        /* \"Lottery.sol\":2578:2579  0 */\n      0x00\n        /* \"Lottery.sol\":2551:2579  msg.value % ticketPrice == 0 */\n      eq\n        /* \"Lottery.sol\":2674:2703  Strings.toString(ticketPrice) */\n      tag_282\n        /* \"Lottery.sol\":2691:2702  ticketPrice */\n      sload(0x00)\n        /* \"Lottery.sol\":2674:2690  Strings.toString */\n      tag_206\n        /* \"Lottery.sol\":2674:2703  Strings.toString(ticketPrice) */\n      jump\t// in\n    tag_282:\n        /* \"Lottery.sol\":2593:2743  string.concat(... */\n      add(0x20, mload(0x40))\n      tag_283\n      swap2\n      swap1\n      tag_208\n      jump\t// in\n    tag_283:\n      mload(0x40)\n      0x20\n      dup2\n      dup4\n      sub\n      sub\n      dup2\n      mstore\n      swap1\n      0x40\n      mstore\n        /* \"Lottery.sol\":2530:2753  require(... */\n      swap1\n      tag_284\n      jumpi\n      mload(0x40)\n      shl(0xe5, 0x461bcd)\n      dup2\n      mstore\n      0x04\n      add\n      tag_158\n      swap2\n      swap1\n      tag_211\n      jump\t// in\n    tag_284:\n      pop\n        /* \"Lottery.sol\":2763:2788  uint256 numOfTicketsToBuy */\n      0x00\n        /* \"Lottery.sol\":2803:2814  ticketPrice */\n      dup1\n      sload\n        /* \"Lottery.sol\":2791:2814  msg.value / ticketPrice */\n      tag_286\n      swap1\n        /* \"Lottery.sol\":2791:2800  msg.value */\n      callvalue\n        /* \"Lottery.sol\":2791:2814  msg.value / ticketPrice */\n      tag_213\n      jump\t// in\n    tag_286:\n        /* \"Lottery.sol\":2763:2814  uint256 numOfTicketsToBuy = msg.value / ticketPrice */\n      swap1\n      pop\n        /* \"Lottery.sol\":2867:2885  RemainingTickets() */\n      tag_287\n        /* \"Lottery.sol\":2867:2883  RemainingTickets */\n      tag_105\n        /* \"Lottery.sol\":2867:2885  RemainingTickets() */\n      jump\t// in\n    tag_287:\n        /* \"Lottery.sol\":2846:2863  numOfTicketsToBuy */\n      dup2\n        /* \"Lottery.sol\":2846:2885  numOfTicketsToBuy <= RemainingTickets() */\n      gt\n      iszero\n        /* \"Lottery.sol\":2825:2940  require(... */\n      tag_288\n      jumpi\n      mload(0x40)\n      shl(0xe5, 0x461bcd)\n      dup2\n      mstore\n        /* \"#utility.yul\":5702:5704   */\n      0x20\n        /* \"Lottery.sol\":2825:2940  require(... */\n      0x04\n      dup3\n      add\n        /* \"#utility.yul\":5684:5705   */\n      mstore\n        /* \"#utility.yul\":5741:5743   */\n      0x1d\n        /* \"#utility.yul\":5721:5739   */\n      0x24\n      dup3\n      add\n        /* \"#utility.yul\":5714:5744   */\n      mstore\n        /* \"#utility.yul\":5780:5811   */\n      0x4e6f7420656e6f756768207469636b65747320617661696c61626c652e000000\n        /* \"#utility.yul\":5760:5778   */\n      0x44\n      dup3\n      add\n        /* \"#utility.yul\":5753:5812   */\n      mstore\n        /* \"#utility.yul\":5829:5847   */\n      0x64\n      add\n        /* \"Lottery.sol\":2825:2940  require(... */\n      tag_158\n        /* \"#utility.yul\":5500:5853   */\n      jump\n        /* \"Lottery.sol\":2825:2940  require(... */\n    tag_288:\n        /* \"Lottery.sol\":2972:2989  numOfTicketsToBuy */\n      dup1\n        /* \"Lottery.sol\":2993:2994  3 */\n      0x03\n        /* \"Lottery.sol\":2972:2994  numOfTicketsToBuy == 3 */\n      eq\n        /* \"Lottery.sol\":2951:3072  require(... */\n      tag_290\n      jumpi\n      mload(0x40)\n      shl(0xe5, 0x461bcd)\n      dup2\n      mstore\n        /* \"#utility.yul\":7398:7400   */\n      0x20\n        /* \"Lottery.sol\":2951:3072  require(... */\n      0x04\n      dup3\n      add\n        /* \"#utility.yul\":7380:7401   */\n      mstore\n        /* \"#utility.yul\":7437:7439   */\n      0x34\n        /* \"#utility.yul\":7417:7435   */\n      0x24\n      dup3\n      add\n        /* \"#utility.yul\":7410:7440   */\n      mstore\n        /* \"#utility.yul\":7476:7510   */\n      0x596f752063616e206f6e6c79206765742033207469636b657473206174206120\n        /* \"#utility.yul\":7456:7474   */\n      0x44\n      dup3\n      add\n        /* \"#utility.yul\":7449:7511   */\n      mstore\n      shl(0x61, 0x3a34b6b2903bb4ba34103a3434b99037b33332b9)\n        /* \"#utility.yul\":7527:7545   */\n      0x64\n      dup3\n      add\n        /* \"#utility.yul\":7520:7570   */\n      mstore\n        /* \"#utility.yul\":7587:7606   */\n      0x84\n      add\n        /* \"Lottery.sol\":2951:3072  require(... */\n      tag_158\n        /* \"#utility.yul\":7196:7612   */\n      jump\n        /* \"Lottery.sol\":2951:3072  require(... */\n    tag_290:\n        /* \"Lottery.sol\":3088:3097  uint256 i */\n      0x00\n        /* \"Lottery.sol\":3083:3180  for (uint256 i = 0; i < numOfTicketsToBuy; i++) {... */\n    tag_293:\n        /* \"Lottery.sol\":3107:3124  numOfTicketsToBuy */\n      dup2\n        /* \"Lottery.sol\":3103:3104  i */\n      dup2\n        /* \"Lottery.sol\":3103:3124  i < numOfTicketsToBuy */\n      lt\n        /* \"Lottery.sol\":3083:3180  for (uint256 i = 0; i < numOfTicketsToBuy; i++) {... */\n      iszero\n      tag_219\n      jumpi\n        /* \"Lottery.sol\":3145:3152  tickets */\n      0x0b\n        /* \"Lottery.sol\":3145:3169  tickets.push(msg.sender) */\n      dup1\n      sload\n      0x01\n      dup2\n      add\n      dup3\n      sstore\n      0x00\n      swap2\n      swap1\n      swap2\n      mstore\n      0x0175b7a638427703f0dbe7bb9bbf987a2551717b34e79f33b5b1008d1fa01db9\n      add\n      dup1\n      sload\n      not(sub(shl(0xa0, 0x01), 0x01))\n      and\n        /* \"Lottery.sol\":3158:3168  msg.sender */\n      caller\n        /* \"Lottery.sol\":3145:3169  tickets.push(msg.sender) */\n      or\n      swap1\n      sstore\n        /* \"Lottery.sol\":3126:3129  i++ */\n      dup1\n      tag_297\n      dup2\n      tag_223\n      jump\t// in\n    tag_297:\n      swap2\n      pop\n      pop\n        /* \"Lottery.sol\":3083:3180  for (uint256 i = 0; i < numOfTicketsToBuy; i++) {... */\n      jump(tag_293)\n        /* \"Lottery.sol\":6776:6890  function CurrentWinningReward() public view returns (uint256) {... */\n    tag_131:\n        /* \"Lottery.sol\":6829:6836  uint256 */\n      0x00\n        /* \"Lottery.sol\":6872:6883  ticketPrice */\n      dup1\n      sload\n        /* \"Lottery.sol\":6855:6862  tickets */\n      0x0b\n        /* \"Lottery.sol\":6855:6869  tickets.length */\n      sload\n        /* \"Lottery.sol\":6855:6883  tickets.length * ticketPrice */\n      tag_225\n      swap2\n        /* \"Lottery.sol\":6872:6883  ticketPrice */\n      swap1\n        /* \"Lottery.sol\":6855:6883  tickets.length * ticketPrice */\n      tag_182\n      jump\t// in\n        /* \"Lottery.sol\":5409:5611  function restartDraw() public isOperator {... */\n    tag_150:\n        /* \"Lottery.sol\":1258:1273  lotteryOperator */\n      and(sub(shl(0xa0, 0x01), 0x01), sload(0x02))\n        /* \"Lottery.sol\":1244:1254  msg.sender */\n      caller\n        /* \"Lottery.sol\":1244:1273  msg.sender == lotteryOperator */\n      eq\n        /* \"Lottery.sol\":1222:1334  require(... */\n      tag_302\n      jumpi\n      mload(0x40)\n      shl(0xe5, 0x461bcd)\n      dup2\n      mstore\n        /* \"#utility.yul\":2006:2008   */\n      0x20\n        /* \"Lottery.sol\":1222:1334  require(... */\n      0x04\n      dup3\n      add\n        /* \"#utility.yul\":1988:2009   */\n      mstore\n        /* \"#utility.yul\":2045:2047   */\n      0x22\n        /* \"#utility.yul\":2025:2043   */\n      0x24\n      dup3\n      add\n        /* \"#utility.yul\":2018:2048   */\n      mstore\n        /* \"#utility.yul\":2084:2118   */\n      0x43616c6c6572206973206e6f7420746865206c6f7474657279206f7065726174\n        /* \"#utility.yul\":2064:2082   */\n      0x44\n      dup3\n      add\n        /* \"#utility.yul\":2057:2119   */\n      mstore\n      shl(0xf1, 0x37b9)\n        /* \"#utility.yul\":2135:2153   */\n      0x64\n      dup3\n      add\n        /* \"#utility.yul\":2128:2160   */\n      mstore\n        /* \"#utility.yul\":2177:2196   */\n      0x84\n      add\n        /* \"Lottery.sol\":1222:1334  require(... */\n      tag_158\n        /* \"#utility.yul\":1804:2202   */\n      jump\n        /* \"Lottery.sol\":1222:1334  require(... */\n    tag_302:\n        /* \"Lottery.sol\":5468:5475  tickets */\n      0x0b\n        /* \"Lottery.sol\":5468:5482  tickets.length */\n      sload\n        /* \"Lottery.sol\":5468:5487  tickets.length == 0 */\n      iszero\n        /* \"Lottery.sol\":5460:5530  require(tickets.length == 0, \"Cannot Restart Draw as Draw is in play\") */\n      tag_305\n      jumpi\n      mload(0x40)\n      shl(0xe5, 0x461bcd)\n      dup2\n      mstore\n        /* \"#utility.yul\":7819:7821   */\n      0x20\n        /* \"Lottery.sol\":5460:5530  require(tickets.length == 0, \"Cannot Restart Draw as Draw is in play\") */\n      0x04\n      dup3\n      add\n        /* \"#utility.yul\":7801:7822   */\n      mstore\n        /* \"#utility.yul\":7858:7860   */\n      0x26\n        /* \"#utility.yul\":7838:7856   */\n      0x24\n      dup3\n      add\n        /* \"#utility.yul\":7831:7861   */\n      mstore\n        /* \"#utility.yul\":7897:7931   */\n      0x43616e6e6f742052657374617274204472617720617320447261772069732069\n        /* \"#utility.yul\":7877:7895   */\n      0x44\n      dup3\n      add\n        /* \"#utility.yul\":7870:7932   */\n      mstore\n        /* \"#utility.yul\":7968:7976   */\n      0x6e20706c61790000000000000000000000000000000000000000000000000000\n        /* \"#utility.yul\":7948:7966   */\n      0x64\n      dup3\n      add\n        /* \"#utility.yul\":7941:7977   */\n      mstore\n        /* \"#utility.yul\":7994:8013   */\n      0x84\n      add\n        /* \"Lottery.sol\":5460:5530  require(tickets.length == 0, \"Cannot Restart Draw as Draw is in play\") */\n      tag_158\n        /* \"#utility.yul\":7617:8019   */\n      jump\n        /* \"Lottery.sol\":5460:5530  require(tickets.length == 0, \"Cannot Restart Draw as Draw is in play\") */\n    tag_305:\n        /* \"Lottery.sol\":5541:5555  delete tickets */\n      tag_308\n        /* \"Lottery.sol\":5548:5555  tickets */\n      0x0b\n      0x00\n        /* \"Lottery.sol\":5541:5555  delete tickets */\n      tag_188\n      jump\t// in\n    tag_308:\n        /* \"Lottery.sol\":5578:5604  block.timestamp + duration */\n      tag_309\n        /* \"Lottery.sol\":388:401  43200 minutes */\n      0x278d00\n        /* \"Lottery.sol\":5578:5593  block.timestamp */\n      timestamp\n        /* \"Lottery.sol\":5578:5604  block.timestamp + duration */\n      tag_184\n      jump\t// in\n    tag_309:\n        /* \"Lottery.sol\":5565:5575  expiration */\n      0x01\n        /* \"Lottery.sol\":5565:5604  expiration = block.timestamp + duration */\n      sstore\n        /* \"Lottery.sol\":5409:5611  function restartDraw() public isOperator {... */\n      jump\t// out\n        /* \"@openzeppelin/contracts/utils/Strings.sol\":392:1095   */\n    tag_206:\n        /* \"@openzeppelin/contracts/utils/Strings.sol\":448:461   */\n      0x60\n        /* \"@openzeppelin/contracts/utils/Strings.sol\":665:670   */\n      dup2\n        /* \"@openzeppelin/contracts/utils/Strings.sol\":674:675   */\n      0x00\n        /* \"@openzeppelin/contracts/utils/Strings.sol\":665:675   */\n      sub\n        /* \"@openzeppelin/contracts/utils/Strings.sol\":661:712   */\n      tag_311\n      jumpi\n      pop\n      pop\n        /* \"@openzeppelin/contracts/utils/Strings.sol\":691:701   */\n      0x40\n      dup1\n      mload\n      dup1\n      dup3\n      add\n      swap1\n      swap2\n      mstore\n      0x01\n      dup2\n      mstore\n      shl(0xfc, 0x03)\n      0x20\n      dup3\n      add\n      mstore\n      swap1\n        /* \"@openzeppelin/contracts/utils/Strings.sol\":392:1095   */\n      jump\t// out\n        /* \"@openzeppelin/contracts/utils/Strings.sol\":661:712   */\n    tag_311:\n        /* \"@openzeppelin/contracts/utils/Strings.sol\":736:741   */\n      dup2\n        /* \"@openzeppelin/contracts/utils/Strings.sol\":721:733   */\n      0x00\n        /* \"@openzeppelin/contracts/utils/Strings.sol\":775:850   */\n    tag_312:\n        /* \"@openzeppelin/contracts/utils/Strings.sol\":782:791   */\n      dup2\n      iszero\n        /* \"@openzeppelin/contracts/utils/Strings.sol\":775:850   */\n      tag_313\n      jumpi\n        /* \"@openzeppelin/contracts/utils/Strings.sol\":807:815   */\n      dup1\n      tag_314\n      dup2\n      tag_223\n      jump\t// in\n    tag_314:\n      swap2\n      pop\n        /* \"@openzeppelin/contracts/utils/Strings.sol\":829:839   */\n      tag_315\n      swap1\n      pop\n        /* \"@openzeppelin/contracts/utils/Strings.sol\":837:839   */\n      0x0a\n        /* \"@openzeppelin/contracts/utils/Strings.sol\":829:839   */\n      dup4\n      tag_213\n      jump\t// in\n    tag_315:\n      swap2\n      pop\n        /* \"@openzeppelin/contracts/utils/Strings.sol\":775:850   */\n      jump(tag_312)\n    tag_313:\n        /* \"@openzeppelin/contracts/utils/Strings.sol\":859:878   */\n      0x00\n        /* \"@openzeppelin/contracts/utils/Strings.sol\":891:897   */\n      dup2\n        /* \"@openzeppelin/contracts/utils/Strings.sol\":881:898   */\n      0xffffffffffffffff\n      dup2\n      gt\n      iszero\n      tag_317\n      jumpi\n      tag_317\n      tag_318\n      jump\t// in\n    tag_317:\n      mload(0x40)\n      swap1\n      dup1\n      dup3\n      mstore\n      dup1\n      0x1f\n      add\n      not(0x1f)\n      and\n      0x20\n      add\n      dup3\n      add\n      0x40\n      mstore\n      dup1\n      iszero\n      tag_319\n      jumpi\n      0x20\n      dup3\n      add\n      dup2\n      dup1\n      calldatasize\n      dup4\n      calldatacopy\n      add\n      swap1\n      pop\n    tag_319:\n      pop\n        /* \"@openzeppelin/contracts/utils/Strings.sol\":859:898   */\n      swap1\n      pop\n        /* \"@openzeppelin/contracts/utils/Strings.sol\":908:1058   */\n    tag_320:\n        /* \"@openzeppelin/contracts/utils/Strings.sol\":915:925   */\n      dup5\n      iszero\n        /* \"@openzeppelin/contracts/utils/Strings.sol\":908:1058   */\n      tag_321\n      jumpi\n        /* \"@openzeppelin/contracts/utils/Strings.sol\":941:952   */\n      tag_322\n        /* \"@openzeppelin/contracts/utils/Strings.sol\":951:952   */\n      0x01\n        /* \"@openzeppelin/contracts/utils/Strings.sol\":941:952   */\n      dup4\n      tag_171\n      jump\t// in\n    tag_322:\n      swap2\n      pop\n        /* \"@openzeppelin/contracts/utils/Strings.sol\":1009:1019   */\n      tag_323\n        /* \"@openzeppelin/contracts/utils/Strings.sol\":1017:1019   */\n      0x0a\n        /* \"@openzeppelin/contracts/utils/Strings.sol\":1009:1014   */\n      dup7\n        /* \"@openzeppelin/contracts/utils/Strings.sol\":1009:1019   */\n      tag_175\n      jump\t// in\n    tag_323:\n        /* \"@openzeppelin/contracts/utils/Strings.sol\":996:1020   */\n      tag_324\n      swap1\n        /* \"@openzeppelin/contracts/utils/Strings.sol\":996:998   */\n      0x30\n        /* \"@openzeppelin/contracts/utils/Strings.sol\":996:1020   */\n      tag_184\n      jump\t// in\n    tag_324:\n        /* \"@openzeppelin/contracts/utils/Strings.sol\":983:1022   */\n      0xf8\n      shl\n        /* \"@openzeppelin/contracts/utils/Strings.sol\":966:972   */\n      dup2\n        /* \"@openzeppelin/contracts/utils/Strings.sol\":973:979   */\n      dup4\n        /* \"@openzeppelin/contracts/utils/Strings.sol\":966:980   */\n      dup2\n      mload\n      dup2\n      lt\n      tag_326\n      jumpi\n      tag_326\n      tag_178\n      jump\t// in\n    tag_326:\n      0x20\n      add\n      add\n        /* \"@openzeppelin/contracts/utils/Strings.sol\":966:1022   */\n      swap1\n      not(0xffffffffffffffffffffffffffffffffffffffffffffffffffffffffffffff)\n      and\n      swap1\n      dup2\n      0x00\n      byte\n      swap1\n      mstore8\n      pop\n        /* \"@openzeppelin/contracts/utils/Strings.sol\":1036:1047   */\n      tag_327\n        /* \"@openzeppelin/contracts/utils/Strings.sol\":1045:1047   */\n      0x0a\n        /* \"@openzeppelin/contracts/utils/Strings.sol\":1036:1047   */\n      dup7\n      tag_213\n      jump\t// in\n    tag_327:\n      swap5\n      pop\n        /* \"@openzeppelin/contracts/utils/Strings.sol\":908:1058   */\n      jump(tag_320)\n    tag_321:\n        /* \"@openzeppelin/contracts/utils/Strings.sol\":1081:1087   */\n      swap5\n        /* \"@openzeppelin/contracts/utils/Strings.sol\":392:1095   */\n      swap4\n      pop\n      pop\n      pop\n      pop\n      jump\t// out\n    tag_188:\n      pop\n      dup1\n      sload\n      0x00\n      dup3\n      sstore\n      swap1\n      0x00\n      mstore\n      keccak256(0x00, 0x20)\n      swap1\n      dup2\n      add\n      swap1\n      tag_329\n      swap2\n      swap1\n      tag_330\n      jump\t// in\n    tag_329:\n      pop\n      jump\t// out\n    tag_330:\n    tag_331:\n      dup1\n      dup3\n      gt\n      iszero\n      tag_332\n      jumpi\n      0x00\n      dup2\n      sstore\n      0x01\n      add\n      jump(tag_331)\n    tag_332:\n      pop\n      swap1\n      jump\t// out\n        /* \"#utility.yul\":196:877   */\n    tag_78:\n        /* \"#utility.yul\":367:369   */\n      0x20\n        /* \"#utility.yul\":419:440   */\n      dup1\n      dup3\n      mstore\n        /* \"#utility.yul\":489:502   */\n      dup3\n      mload\n        /* \"#utility.yul\":392:410   */\n      dup3\n      dup3\n      add\n        /* \"#utility.yul\":511:533   */\n      dup2\n      swap1\n      mstore\n        /* \"#utility.yul\":338:342   */\n      0x00\n      swap2\n        /* \"#utility.yul\":367:369   */\n      swap1\n        /* \"#utility.yul\":590:605   */\n      dup5\n      dup3\n      add\n      swap1\n        /* \"#utility.yul\":564:566   */\n      0x40\n        /* \"#utility.yul\":549:567   */\n      dup6\n      add\n      swap1\n        /* \"#utility.yul\":338:342   */\n      dup5\n        /* \"#utility.yul\":633:851   */\n    tag_339:\n        /* \"#utility.yul\":647:653   */\n      dup2\n        /* \"#utility.yul\":644:645   */\n      dup2\n        /* \"#utility.yul\":641:654   */\n      lt\n        /* \"#utility.yul\":633:851   */\n      iszero\n      tag_341\n      jumpi\n        /* \"#utility.yul\":712:725   */\n      dup4\n      mload\n      sub(shl(0xa0, 0x01), 0x01)\n        /* \"#utility.yul\":708:770   */\n      and\n        /* \"#utility.yul\":696:771   */\n      dup4\n      mstore\n        /* \"#utility.yul\":826:841   */\n      swap3\n      dup5\n      add\n      swap3\n        /* \"#utility.yul\":791:803   */\n      swap2\n      dup5\n      add\n      swap2\n        /* \"#utility.yul\":669:670   */\n      0x01\n        /* \"#utility.yul\":662:671   */\n      add\n        /* \"#utility.yul\":633:851   */\n      jump(tag_339)\n    tag_341:\n      pop\n        /* \"#utility.yul\":868:871   */\n      swap1\n      swap7\n        /* \"#utility.yul\":196:877   */\n      swap6\n      pop\n      pop\n      pop\n      pop\n      pop\n      pop\n      jump\t// out\n        /* \"#utility.yul\":882:1062   */\n    tag_82:\n        /* \"#utility.yul\":941:947   */\n      0x00\n        /* \"#utility.yul\":994:996   */\n      0x20\n        /* \"#utility.yul\":982:991   */\n      dup3\n        /* \"#utility.yul\":973:980   */\n      dup5\n        /* \"#utility.yul\":969:992   */\n      sub\n        /* \"#utility.yul\":965:997   */\n      slt\n        /* \"#utility.yul\":962:1014   */\n      iszero\n      tag_343\n      jumpi\n        /* \"#utility.yul\":1010:1011   */\n      0x00\n        /* \"#utility.yul\":1007:1008   */\n      dup1\n        /* \"#utility.yul\":1000:1012   */\n      revert\n        /* \"#utility.yul\":962:1014   */\n    tag_343:\n      pop\n        /* \"#utility.yul\":1033:1056   */\n      calldataload\n      swap2\n        /* \"#utility.yul\":882:1062   */\n      swap1\n      pop\n      jump\t// out\n        /* \"#utility.yul\":1490:1799   */\n    tag_136:\n        /* \"#utility.yul\":1549:1555   */\n      0x00\n        /* \"#utility.yul\":1602:1604   */\n      0x20\n        /* \"#utility.yul\":1590:1599   */\n      dup3\n        /* \"#utility.yul\":1581:1588   */\n      dup5\n        /* \"#utility.yul\":1577:1600   */\n      sub\n        /* \"#utility.yul\":1573:1605   */\n      slt\n        /* \"#utility.yul\":1570:1622   */\n      iszero\n      tag_347\n      jumpi\n        /* \"#utility.yul\":1618:1619   */\n      0x00\n        /* \"#utility.yul\":1615:1616   */\n      dup1\n        /* \"#utility.yul\":1608:1620   */\n      revert\n        /* \"#utility.yul\":1570:1622   */\n    tag_347:\n        /* \"#utility.yul\":1657:1666   */\n      dup2\n        /* \"#utility.yul\":1644:1667   */\n      calldataload\n      sub(shl(0xa0, 0x01), 0x01)\n        /* \"#utility.yul\":1700:1705   */\n      dup2\n        /* \"#utility.yul\":1696:1750   */\n      and\n        /* \"#utility.yul\":1689:1694   */\n      dup2\n        /* \"#utility.yul\":1686:1751   */\n      eq\n        /* \"#utility.yul\":1676:1769   */\n      tag_348\n      jumpi\n        /* \"#utility.yul\":1765:1766   */\n      0x00\n        /* \"#utility.yul\":1762:1763   */\n      dup1\n        /* \"#utility.yul\":1755:1767   */\n      revert\n        /* \"#utility.yul\":1676:1769   */\n    tag_348:\n        /* \"#utility.yul\":1788:1793   */\n      swap4\n        /* \"#utility.yul\":1490:1799   */\n      swap3\n      pop\n      pop\n      pop\n      jump\t// out\n        /* \"#utility.yul\":2561:2688   */\n    tag_333:\n        /* \"#utility.yul\":2622:2632   */\n      0x4e487b71\n        /* \"#utility.yul\":2617:2620   */\n      0xe0\n        /* \"#utility.yul\":2613:2633   */\n      shl\n        /* \"#utility.yul\":2610:2611   */\n      0x00\n        /* \"#utility.yul\":2603:2634   */\n      mstore\n        /* \"#utility.yul\":2653:2657   */\n      0x11\n        /* \"#utility.yul\":2650:2651   */\n      0x04\n        /* \"#utility.yul\":2643:2658   */\n      mstore\n        /* \"#utility.yul\":2677:2681   */\n      0x24\n        /* \"#utility.yul\":2674:2675   */\n      0x00\n        /* \"#utility.yul\":2667:2682   */\n      revert\n        /* \"#utility.yul\":2693:2821   */\n    tag_171:\n        /* \"#utility.yul\":2760:2769   */\n      dup2\n      dup2\n      sub\n        /* \"#utility.yul\":2781:2792   */\n      dup2\n      dup2\n      gt\n        /* \"#utility.yul\":2778:2815   */\n      iszero\n      tag_354\n      jumpi\n        /* \"#utility.yul\":2795:2813   */\n      tag_354\n      tag_333\n      jump\t// in\n    tag_354:\n        /* \"#utility.yul\":2693:2821   */\n      swap3\n      swap2\n      pop\n      pop\n      jump\t// out\n        /* \"#utility.yul\":3078:3205   */\n    tag_334:\n        /* \"#utility.yul\":3139:3149   */\n      0x4e487b71\n        /* \"#utility.yul\":3134:3137   */\n      0xe0\n        /* \"#utility.yul\":3130:3150   */\n      shl\n        /* \"#utility.yul\":3127:3128   */\n      0x00\n        /* \"#utility.yul\":3120:3151   */\n      mstore\n        /* \"#utility.yul\":3170:3174   */\n      0x12\n        /* \"#utility.yul\":3167:3168   */\n      0x04\n        /* \"#utility.yul\":3160:3175   */\n      mstore\n        /* \"#utility.yul\":3194:3198   */\n      0x24\n        /* \"#utility.yul\":3191:3192   */\n      0x00\n        /* \"#utility.yul\":3184:3199   */\n      revert\n        /* \"#utility.yul\":3210:3322   */\n    tag_175:\n        /* \"#utility.yul\":3242:3243   */\n      0x00\n        /* \"#utility.yul\":3268:3269   */\n      dup3\n        /* \"#utility.yul\":3258:3293   */\n      tag_359\n      jumpi\n        /* \"#utility.yul\":3273:3291   */\n      tag_359\n      tag_334\n      jump\t// in\n    tag_359:\n      pop\n        /* \"#utility.yul\":3307:3316   */\n      mod\n      swap1\n        /* \"#utility.yul\":3210:3322   */\n      jump\t// out\n        /* \"#utility.yul\":3327:3454   */\n    tag_178:\n        /* \"#utility.yul\":3388:3398   */\n      0x4e487b71\n        /* \"#utility.yul\":3383:3386   */\n      0xe0\n        /* \"#utility.yul\":3379:3399   */\n      shl\n        /* \"#utility.yul\":3376:3377   */\n      0x00\n        /* \"#utility.yul\":3369:3400   */\n      mstore\n        /* \"#utility.yul\":3419:3423   */\n      0x32\n        /* \"#utility.yul\":3416:3417   */\n      0x04\n        /* \"#utility.yul\":3409:3424   */\n      mstore\n        /* \"#utility.yul\":3443:3447   */\n      0x24\n        /* \"#utility.yul\":3440:3441   */\n      0x00\n        /* \"#utility.yul\":3433:3448   */\n      revert\n        /* \"#utility.yul\":3459:3627   */\n    tag_182:\n        /* \"#utility.yul\":3532:3541   */\n      dup1\n      dup3\n      mul\n        /* \"#utility.yul\":3563:3572   */\n      dup2\n      iszero\n        /* \"#utility.yul\":3580:3595   */\n      dup3\n      dup3\n      div\n        /* \"#utility.yul\":3574:3596   */\n      dup5\n      eq\n        /* \"#utility.yul\":3560:3597   */\n      or\n        /* \"#utility.yul\":3550:3621   */\n      tag_354\n      jumpi\n        /* \"#utility.yul\":3601:3619   */\n      tag_354\n      tag_333\n      jump\t// in\n        /* \"#utility.yul\":3632:3757   */\n    tag_184:\n        /* \"#utility.yul\":3697:3706   */\n      dup1\n      dup3\n      add\n        /* \"#utility.yul\":3718:3728   */\n      dup1\n      dup3\n      gt\n        /* \"#utility.yul\":3715:3751   */\n      iszero\n      tag_354\n      jumpi\n        /* \"#utility.yul\":3731:3749   */\n      tag_354\n      tag_333\n      jump\t// in\n        /* \"#utility.yul\":4113:4363   */\n    tag_335:\n        /* \"#utility.yul\":4198:4199   */\n      0x00\n        /* \"#utility.yul\":4208:4321   */\n    tag_369:\n        /* \"#utility.yul\":4222:4228   */\n      dup4\n        /* \"#utility.yul\":4219:4220   */\n      dup2\n        /* \"#utility.yul\":4216:4229   */\n      lt\n        /* \"#utility.yul\":4208:4321   */\n      iszero\n      tag_371\n      jumpi\n        /* \"#utility.yul\":4298:4309   */\n      dup2\n      dup2\n      add\n        /* \"#utility.yul\":4292:4310   */\n      mload\n        /* \"#utility.yul\":4279:4290   */\n      dup4\n      dup3\n      add\n        /* \"#utility.yul\":4272:4311   */\n      mstore\n        /* \"#utility.yul\":4244:4246   */\n      0x20\n        /* \"#utility.yul\":4237:4247   */\n      add\n        /* \"#utility.yul\":4208:4321   */\n      jump(tag_369)\n    tag_371:\n      pop\n      pop\n        /* \"#utility.yul\":4355:4356   */\n      0x00\n        /* \"#utility.yul\":4337:4353   */\n      swap2\n      add\n        /* \"#utility.yul\":4330:4357   */\n      mstore\n        /* \"#utility.yul\":4113:4363   */\n      jump\t// out\n        /* \"#utility.yul\":4368:4969   */\n    tag_208:\n        /* \"#utility.yul\":4710:4742   */\n      0x7468652076616c7565206d757374206265206d756c7469706c65206f66200000\n        /* \"#utility.yul\":4705:4708   */\n      dup2\n        /* \"#utility.yul\":4698:4743   */\n      mstore\n        /* \"#utility.yul\":4680:4683   */\n      0x00\n        /* \"#utility.yul\":4772:4778   */\n      dup3\n        /* \"#utility.yul\":4766:4779   */\n      mload\n        /* \"#utility.yul\":4788:4863   */\n      tag_373\n        /* \"#utility.yul\":4856:4862   */\n      dup2\n        /* \"#utility.yul\":4851:4853   */\n      0x1e\n        /* \"#utility.yul\":4846:4849   */\n      dup6\n        /* \"#utility.yul\":4842:4854   */\n      add\n        /* \"#utility.yul\":4835:4839   */\n      0x20\n        /* \"#utility.yul\":4827:4833   */\n      dup8\n        /* \"#utility.yul\":4823:4840   */\n      add\n        /* \"#utility.yul\":4788:4863   */\n      tag_335\n      jump\t// in\n    tag_373:\n        /* \"#utility.yul\":4927:4935   */\n      0x2045746865720000000000000000000000000000000000000000000000000000\n        /* \"#utility.yul\":4922:4924   */\n      0x1e\n        /* \"#utility.yul\":4882:4898   */\n      swap4\n      swap1\n      swap2\n      add\n        /* \"#utility.yul\":4914:4925   */\n      swap3\n      dup4\n      add\n        /* \"#utility.yul\":4907:4936   */\n      mstore\n      pop\n        /* \"#utility.yul\":4960:4962   */\n      0x24\n        /* \"#utility.yul\":4952:4963   */\n      add\n      swap2\n        /* \"#utility.yul\":4368:4969   */\n      swap1\n      pop\n      jump\t// out\n        /* \"#utility.yul\":4974:5370   */\n    tag_211:\n        /* \"#utility.yul\":5123:5125   */\n      0x20\n        /* \"#utility.yul\":5112:5121   */\n      dup2\n        /* \"#utility.yul\":5105:5126   */\n      mstore\n        /* \"#utility.yul\":5086:5090   */\n      0x00\n        /* \"#utility.yul\":5155:5161   */\n      dup3\n        /* \"#utility.yul\":5149:5162   */\n      mload\n        /* \"#utility.yul\":5198:5204   */\n      dup1\n        /* \"#utility.yul\":5193:5195   */\n      0x20\n        /* \"#utility.yul\":5182:5191   */\n      dup5\n        /* \"#utility.yul\":5178:5196   */\n      add\n        /* \"#utility.yul\":5171:5205   */\n      mstore\n        /* \"#utility.yul\":5214:5293   */\n      tag_375\n        /* \"#utility.yul\":5286:5292   */\n      dup2\n        /* \"#utility.yul\":5281:5283   */\n      0x40\n        /* \"#utility.yul\":5270:5279   */\n      dup6\n        /* \"#utility.yul\":5266:5284   */\n      add\n        /* \"#utility.yul\":5261:5263   */\n      0x20\n        /* \"#utility.yul\":5253:5259   */\n      dup8\n        /* \"#utility.yul\":5249:5264   */\n      add\n        /* \"#utility.yul\":5214:5293   */\n      tag_335\n      jump\t// in\n    tag_375:\n        /* \"#utility.yul\":5354:5356   */\n      0x1f\n        /* \"#utility.yul\":5333:5348   */\n      add\n      not(0x1f)\n        /* \"#utility.yul\":5329:5358   */\n      and\n        /* \"#utility.yul\":5314:5359   */\n      swap2\n      swap1\n      swap2\n      add\n        /* \"#utility.yul\":5361:5363   */\n      0x40\n        /* \"#utility.yul\":5310:5364   */\n      add\n      swap3\n        /* \"#utility.yul\":4974:5370   */\n      swap2\n      pop\n      pop\n      jump\t// out\n        /* \"#utility.yul\":5375:5495   */\n    tag_213:\n        /* \"#utility.yul\":5415:5416   */\n      0x00\n        /* \"#utility.yul\":5441:5442   */\n      dup3\n        /* \"#utility.yul\":5431:5466   */\n      tag_378\n      jumpi\n        /* \"#utility.yul\":5446:5464   */\n      tag_378\n      tag_334\n      jump\t// in\n    tag_378:\n      pop\n        /* \"#utility.yul\":5480:5489   */\n      div\n      swap1\n        /* \"#utility.yul\":5375:5495   */\n      jump\t// out\n        /* \"#utility.yul\":5858:5993   */\n    tag_223:\n        /* \"#utility.yul\":5897:5900   */\n      0x00\n        /* \"#utility.yul\":5918:5935   */\n      0x01\n      dup3\n      add\n        /* \"#utility.yul\":5915:5958   */\n      tag_382\n      jumpi\n        /* \"#utility.yul\":5938:5956   */\n      tag_382\n      tag_333\n      jump\t// in\n    tag_382:\n      pop\n        /* \"#utility.yul\":5985:5986   */\n      0x01\n        /* \"#utility.yul\":5974:5987   */\n      add\n      swap1\n        /* \"#utility.yul\":5858:5993   */\n      jump\t// out\n        /* \"#utility.yul\":8024:8151   */\n    tag_318:\n        /* \"#utility.yul\":8085:8095   */\n      0x4e487b71\n        /* \"#utility.yul\":8080:8083   */\n      0xe0\n        /* \"#utility.yul\":8076:8096   */\n      shl\n        /* \"#utility.yul\":8073:8074   */\n      0x00\n        /* \"#utility.yul\":8066:8097   */\n      mstore\n        /* \"#utility.yul\":8116:8120   */\n      0x41\n        /* \"#utility.yul\":8113:8114   */\n      0x04\n        /* \"#utility.yul\":8106:8121   */\n      mstore\n        /* \"#utility.yul\":8140:8144   */\n      0x24\n        /* \"#utility.yul\":8137:8138   */\n      0x00\n        /* \"#utility.yul\":8130:8145   */\n      revert\n\n    auxdata: 0xa264697066735822122066540bf14eef749d68bdcc0f9762c6ccfca57cf387e2d7579c6d86e5ee1e580564736f6c63430008110033\n}\n",
    "bytecode": {
      "linkReferences": {},
      "object": "6080604052662386f26fc100006000556000600355661ff973cafa8000600855661550f7dca7000060095534801561003657600080fd5b50600280546001600160a01b0319163317905561005662278d004261005e565b600155610085565b8082018082111561007f57634e487b7160e01b600052601160045260246000fd5b92915050565b611499806100946000396000f3fe6080604052600436106101cd5760003560e01c806391d8b14e116100f7578063aa52e8c611610095578063e89c51c811610064578063e89c51c814610472578063ea3a149914610488578063f2613269146104b5578063fe188184146104ca57600080fd5b8063aa52e8c614610409578063ba946d7914610411578063c6944fa014610427578063dd64e5341461043c57600080fd5b806397aed58a116100d157806397aed58a146103ce5780639b894703146103d65780639c000f2b146103ec578063a88f4672146103f457600080fd5b806391d8b14e1461038257806393a563b51461038a57806396c85ef31461039f57600080fd5b80634665096d1161016f5780635a58acdd1161013e5780635a58acdd146103125780636032a4f91461033257806371827b7b1461034d5780637999b66b1461036257600080fd5b80634665096d1461028d5780634788af7c146102a35780634ed02622146102b857806350b44712146102da57600080fd5b80630fb5a6b4116101ab5780630fb5a6b4146102335780631209b1f61461024a5780633458fd871461026057806335580df21461027657600080fd5b806301482fac146101d257806306f7f3bf146101fb5780630789c60714610211575b600080fd5b3480156101de57600080fd5b506101e860085481565b6040519081526020015b60405180910390f35b34801561020757600080fd5b506101e860055481565b34801561021d57600080fd5b50336000908152600a60205260409020546101e8565b34801561023f57600080fd5b506101e862278d0081565b34801561025657600080fd5b506101e860005481565b34801561026c57600080fd5b506101e860095481565b34801561028257600080fd5b5061028b6104ea565b005b34801561029957600080fd5b506101e860015481565b3480156102af57600080fd5b5061028b610591565b3480156102c457600080fd5b506102cd610795565b6040516101f2919061122e565b3480156102e657600080fd5b506102fa6102f536600461127b565b6107f7565b6040516001600160a01b0390911681526020016101f2565b34801561031e57600080fd5b506002546102fa906001600160a01b031681565b34801561033e57600080fd5b506101e866038d7ea4c6800081565b34801561035957600080fd5b5061028b610821565b34801561036e57600080fd5b506006546102fa906001600160a01b031681565b61028b6108c0565b34801561039657600080fd5b506101e86109e3565b3480156103ab57600080fd5b50336000908152600a6020526040902054151560405190151581526020016101f2565b61028b6109fa565b3480156103e257600080fd5b506101e861271081565b61028b610b90565b34801561040057600080fd5b5061028b610d1d565b61028b610e33565b34801561041d57600080fd5b506101e860035481565b34801561043357600080fd5b506101e8610fc9565b34801561044857600080fd5b506101e8610457366004611294565b6001600160a01b03166000908152600a602052604090205490565b34801561047e57600080fd5b506101e860075481565b34801561049457600080fd5b506101e86104a3366004611294565b600a6020526000908152604090205481565b3480156104c157600080fd5b5061028b610fda565b3480156104d657600080fd5b506004546102fa906001600160a01b031681565b6002546001600160a01b031633146105545760405162461bcd60e51b815260206004820152602260248201527f43616c6c6572206973206e6f7420746865206c6f7474657279206f706572617460448201526137b960f11b60648201526084015b60405180910390fd5b600380546000918290556040513392839183156108fc0291849190818181858888f1935050505015801561058c573d6000803e3d6000fd5b505050565b6002546001600160a01b031633146105f65760405162461bcd60e51b815260206004820152602260248201527f43616c6c6572206973206e6f7420746865206c6f7474657279206f706572617460448201526137b960f11b606482015260840161054b565b600b546106455760405162461bcd60e51b815260206004820152601960248201527f4e6f207469636b65747320776572652070757263686173656400000000000000604482015260640161054b565b600b5460009061065590436112da565b604080514260208201529140908201819052915060009060600160408051601f198184030181529190528051602090910120600b5490915060009061069a9083611309565b90506000600b82815481106106b1576106b161131d565b6000918252602082200154600480546001600160a01b0319166001600160a01b03909216918217905590549091506106f19066038d7ea4c68000906112da565b600b546106fe9190611333565b6001600160a01b0382166000908152600a60205260408120805490919061072690849061134a565b90915550506001600160a01b0381166000908152600a6020526040902054600555600b5461075c9066038d7ea4c6800090611333565b6003600082825461076d919061134a565b9091555061077f9050600b60006111f4565b61078c62278d004261134a565b60015550505050565b6060600b8054806020026020016040519081016040528092919081815260200182805480156107ed57602002820191906000526020600020905b81546001600160a01b031681526001909101906020018083116107cf575b5050505050905090565b600b818154811061080757600080fd5b6000918252602090912001546001600160a01b0316905081565b336000908152600a602052604090205461087d5760405162461bcd60e51b815260206004820152601660248201527f43616c6c6572206973206e6f7420612077696e6e657200000000000000000000604482015260640161054b565b336000818152600a602052604080822080549083905590519091839183156108fc0291849190818181858888f1935050505015801561058c573d6000803e3d6000fd5b6000546108cd9034611309565b6000146108db6000546110d3565b6040516020016108eb9190611381565b604051602081830303815290604052906109185760405162461bcd60e51b815260040161054b91906113ed565b50600080546109279034611420565b90506109316109e3565b8111156109805760405162461bcd60e51b815260206004820152601d60248201527f4e6f7420656e6f756768207469636b65747320617661696c61626c652e000000604482015260640161054b565b60005b818110156109df57600b80546001810182556000919091527f0175b7a638427703f0dbe7bb9bbf987a2551717b34e79f33b5b1008d1fa01db90180546001600160a01b03191633179055806109d781611434565b915050610983565b5050565b600b546000906109f5906127106112da565b905090565b661550f7dca700006000819055610a119034611309565b600014610a1f6000546110d3565b604051602001610a2f9190611381565b60405160208183030381529060405290610a5c5760405162461bcd60e51b815260040161054b91906113ed565b5060008054610a6b9034611420565b9050610a756109e3565b811115610ac45760405162461bcd60e51b815260206004820152601d60248201527f4e6f7420656e6f756768207469636b65747320617661696c61626c652e000000604482015260640161054b565b80600514610b315760405162461bcd60e51b815260206004820152603460248201527f596f752063616e206f6e6c79206765742035207469636b6574732061742061206044820152733a34b6b2903bb4ba34103a3434b99037b33332b960611b606482015260840161054b565b60005b818110156109df57600b80546001810182556000919091527f0175b7a638427703f0dbe7bb9bbf987a2551717b34e79f33b5b1008d1fa01db90180546001600160a01b0319163317905580610b8881611434565b915050610b34565b600054610b9d9034611309565b600014610bab6000546110d3565b604051602001610bbb9190611381565b60405160208183030381529060405290610be85760405162461bcd60e51b815260040161054b91906113ed565b5060008054610bf79034611420565b9050610c016109e3565b811115610c505760405162461bcd60e51b815260206004820152601d60248201527f4e6f7420656e6f756768207469636b65747320617661696c61626c652e000000604482015260640161054b565b80600714610cbd5760405162461bcd60e51b815260206004820152603460248201527f596f752063616e206f6e6c79206765742037207469636b6574732061742061206044820152733a34b6b2903bb4ba34103a3434b99037b33332b960611b606482015260840161054b565b60005b600a8110156109df57600b80546001810182556000919091527f0175b7a638427703f0dbe7bb9bbf987a2551717b34e79f33b5b1008d1fa01db90180546001600160a01b0319163317905580610d1581611434565b915050610cc0565b600154421015610d6f5760405162461bcd60e51b815260206004820152601b60248201527f746865206c6f7474657279206e6f742065787069726564207965740000000000604482015260640161054b565b60005b600b54811015610e24576000600b8281548110610d9157610d9161131d565b6000918252602082200154600b80546001600160a01b0390921693509084908110610dbe57610dbe61131d565b6000918252602082200180546001600160a01b0319166001600160a01b039384161790558054604051928416926108fc82150292818181858888f19350505050158015610e0f573d6000803e3d6000fd5b50508080610e1c90611434565b915050610d72565b50610e31600b60006111f4565b565b661ff973cafa80006000819055610e4a9034611309565b600014610e586000546110d3565b604051602001610e689190611381565b60405160208183030381529060405290610e955760405162461bcd60e51b815260040161054b91906113ed565b5060008054610ea49034611420565b9050610eae6109e3565b811115610efd5760405162461bcd60e51b815260206004820152601d60248201527f4e6f7420656e6f756768207469636b65747320617661696c61626c652e000000604482015260640161054b565b80600314610f6a5760405162461bcd60e51b815260206004820152603460248201527f596f752063616e206f6e6c79206765742033207469636b6574732061742061206044820152733a34b6b2903bb4ba34103a3434b99037b33332b960611b606482015260840161054b565b60005b818110156109df57600b80546001810182556000919091527f0175b7a638427703f0dbe7bb9bbf987a2551717b34e79f33b5b1008d1fa01db90180546001600160a01b0319163317905580610fc181611434565b915050610f6d565b60008054600b546109f59190611333565b6002546001600160a01b0316331461103f5760405162461bcd60e51b815260206004820152602260248201527f43616c6c6572206973206e6f7420746865206c6f7474657279206f706572617460448201526137b960f11b606482015260840161054b565b600b54156110b55760405162461bcd60e51b815260206004820152602660248201527f43616e6e6f74205265737461727420447261772061732044726177206973206960448201527f6e20706c61790000000000000000000000000000000000000000000000000000606482015260840161054b565b6110c1600b60006111f4565b6110ce62278d004261134a565b600155565b6060816000036110fa5750506040805180820190915260018152600360fc1b602082015290565b8160005b8115611124578061110e81611434565b915061111d9050600a83611420565b91506110fe565b60008167ffffffffffffffff81111561113f5761113f61144d565b6040519080825280601f01601f191660200182016040528015611169576020820181803683370190505b5090505b84156111ec5761117e6001836112da565b915061118b600a86611309565b61119690603061134a565b60f81b8183815181106111ab576111ab61131d565b60200101907effffffffffffffffffffffffffffffffffffffffffffffffffffffffffffff1916908160001a9053506111e5600a86611420565b945061116d565b949350505050565b50805460008255906000526020600020908101906112129190611215565b50565b5b8082111561122a5760008155600101611216565b5090565b6020808252825182820181905260009190848201906040850190845b8181101561126f5783516001600160a01b03168352928401929184019160010161124a565b50909695505050505050565b60006020828403121561128d57600080fd5b5035919050565b6000602082840312156112a657600080fd5b81356001600160a01b03811681146112bd57600080fd5b9392505050565b634e487b7160e01b600052601160045260246000fd5b818103818111156112ed576112ed6112c4565b92915050565b634e487b7160e01b600052601260045260246000fd5b600082611318576113186112f3565b500690565b634e487b7160e01b600052603260045260246000fd5b80820281158282048414176112ed576112ed6112c4565b808201808211156112ed576112ed6112c4565b60005b83811015611378578181015183820152602001611360565b50506000910152565b7f7468652076616c7565206d757374206265206d756c7469706c65206f662000008152600082516113b981601e85016020870161135d565b7f2045746865720000000000000000000000000000000000000000000000000000601e939091019283015250602401919050565b602081526000825180602084015261140c81604085016020870161135d565b601f01601f19169190910160400192915050565b60008261142f5761142f6112f3565b500490565b600060018201611446576114466112c4565b5060010190565b634e487b7160e01b600052604160045260246000fdfea264697066735822122066540bf14eef749d68bdcc0f9762c6ccfca57cf387e2d7579c6d86e5ee1e580564736f6c63430008110033",
      "opcodes": "PUSH1 0x80 PUSH1 0x40 MSTORE PUSH7 0x2386F26FC10000 PUSH1 0x0 SSTORE PUSH1 0x0 PUSH1 0x3 SSTORE PUSH7 0x1FF973CAFA8000 PUSH1 0x8 SSTORE PUSH7 0x1550F7DCA70000 PUSH1 0x9 SSTORE CALLVALUE DUP1 ISZERO PUSH2 0x36 JUMPI PUSH1 0x0 DUP1 REVERT JUMPDEST POP PUSH1 0x2 DUP1 SLOAD PUSH1 0x1 PUSH1 0x1 PUSH1 0xA0 SHL SUB NOT AND CALLER OR SWAP1 SSTORE PUSH2 0x56 PUSH3 0x278D00 TIMESTAMP PUSH2 0x5E JUMP JUMPDEST PUSH1 0x1 SSTORE PUSH2 0x85 JUMP JUMPDEST DUP1 DUP3 ADD DUP1 DUP3 GT ISZERO PUSH2 0x7F JUMPI PUSH4 0x4E487B71 PUSH1 0xE0 SHL PUSH1 0x0 MSTORE PUSH1 0x11 PUSH1 0x4 MSTORE PUSH1 0x24 PUSH1 0x0 REVERT JUMPDEST SWAP3 SWAP2 POP POP JUMP JUMPDEST PUSH2 0x1499 DUP1 PUSH2 0x94 PUSH1 0x0 CODECOPY PUSH1 0x0 RETURN INVALID PUSH1 0x80 PUSH1 0x40 MSTORE PUSH1 0x4 CALLDATASIZE LT PUSH2 0x1CD JUMPI PUSH1 0x0 CALLDATALOAD PUSH1 0xE0 SHR DUP1 PUSH4 0x91D8B14E GT PUSH2 0xF7 JUMPI DUP1 PUSH4 0xAA52E8C6 GT PUSH2 0x95 JUMPI DUP1 PUSH4 0xE89C51C8 GT PUSH2 0x64 JUMPI DUP1 PUSH4 0xE89C51C8 EQ PUSH2 0x472 JUMPI DUP1 PUSH4 0xEA3A1499 EQ PUSH2 0x488 JUMPI DUP1 PUSH4 0xF2613269 EQ PUSH2 0x4B5 JUMPI DUP1 PUSH4 0xFE188184 EQ PUSH2 0x4CA JUMPI PUSH1 0x0 DUP1 REVERT JUMPDEST DUP1 PUSH4 0xAA52E8C6 EQ PUSH2 0x409 JUMPI DUP1 PUSH4 0xBA946D79 EQ PUSH2 0x411 JUMPI DUP1 PUSH4 0xC6944FA0 EQ PUSH2 0x427 JUMPI DUP1 PUSH4 0xDD64E534 EQ PUSH2 0x43C JUMPI PUSH1 0x0 DUP1 REVERT JUMPDEST DUP1 PUSH4 0x97AED58A GT PUSH2 0xD1 JUMPI DUP1 PUSH4 0x97AED58A EQ PUSH2 0x3CE JUMPI DUP1 PUSH4 0x9B894703 EQ PUSH2 0x3D6 JUMPI DUP1 PUSH4 0x9C000F2B EQ PUSH2 0x3EC JUMPI DUP1 PUSH4 0xA88F4672 EQ PUSH2 0x3F4 JUMPI PUSH1 0x0 DUP1 REVERT JUMPDEST DUP1 PUSH4 0x91D8B14E EQ PUSH2 0x382 JUMPI DUP1 PUSH4 0x93A563B5 EQ PUSH2 0x38A JUMPI DUP1 PUSH4 0x96C85EF3 EQ PUSH2 0x39F JUMPI PUSH1 0x0 DUP1 REVERT JUMPDEST DUP1 PUSH4 0x4665096D GT PUSH2 0x16F JUMPI DUP1 PUSH4 0x5A58ACDD GT PUSH2 0x13E JUMPI DUP1 PUSH4 0x5A58ACDD EQ PUSH2 0x312 JUMPI DUP1 PUSH4 0x6032A4F9 EQ PUSH2 0x332 JUMPI DUP1 PUSH4 0x71827B7B EQ PUSH2 0x34D JUMPI DUP1 PUSH4 0x7999B66B EQ PUSH2 0x362 JUMPI PUSH1 0x0 DUP1 REVERT JUMPDEST DUP1 PUSH4 0x4665096D EQ PUSH2 0x28D JUMPI DUP1 PUSH4 0x4788AF7C EQ PUSH2 0x2A3 JUMPI DUP1 PUSH4 0x4ED02622 EQ PUSH2 0x2B8 JUMPI DUP1 PUSH4 0x50B44712 EQ PUSH2 0x2DA JUMPI PUSH1 0x0 DUP1 REVERT JUMPDEST DUP1 PUSH4 0xFB5A6B4 GT PUSH2 0x1AB JUMPI DUP1 PUSH4 0xFB5A6B4 EQ PUSH2 0x233 JUMPI DUP1 PUSH4 0x1209B1F6 EQ PUSH2 0x24A JUMPI DUP1 PUSH4 0x3458FD87 EQ PUSH2 0x260 JUMPI DUP1 PUSH4 0x35580DF2 EQ PUSH2 0x276 JUMPI PUSH1 0x0 DUP1 REVERT JUMPDEST DUP1 PUSH4 0x1482FAC EQ PUSH2 0x1D2 JUMPI DUP1 PUSH4 0x6F7F3BF EQ PUSH2 0x1FB JUMPI DUP1 PUSH4 0x789C607 EQ PUSH2 0x211 JUMPI JUMPDEST PUSH1 0x0 DUP1 REVERT JUMPDEST CALLVALUE DUP1 ISZERO PUSH2 0x1DE JUMPI PUSH1 0x0 DUP1 REVERT JUMPDEST POP PUSH2 0x1E8 PUSH1 0x8 SLOAD DUP2 JUMP JUMPDEST PUSH1 0x40 MLOAD SWAP1 DUP2 MSTORE PUSH1 0x20 ADD JUMPDEST PUSH1 0x40 MLOAD DUP1 SWAP2 SUB SWAP1 RETURN JUMPDEST CALLVALUE DUP1 ISZERO PUSH2 0x207 JUMPI PUSH1 0x0 DUP1 REVERT JUMPDEST POP PUSH2 0x1E8 PUSH1 0x5 SLOAD DUP2 JUMP JUMPDEST CALLVALUE DUP1 ISZERO PUSH2 0x21D JUMPI PUSH1 0x0 DUP1 REVERT JUMPDEST POP CALLER PUSH1 0x0 SWAP1 DUP2 MSTORE PUSH1 0xA PUSH1 0x20 MSTORE PUSH1 0x40 SWAP1 KECCAK256 SLOAD PUSH2 0x1E8 JUMP JUMPDEST CALLVALUE DUP1 ISZERO PUSH2 0x23F JUMPI PUSH1 0x0 DUP1 REVERT JUMPDEST POP PUSH2 0x1E8 PUSH3 0x278D00 DUP2 JUMP JUMPDEST CALLVALUE DUP1 ISZERO PUSH2 0x256 JUMPI PUSH1 0x0 DUP1 REVERT JUMPDEST POP PUSH2 0x1E8 PUSH1 0x0 SLOAD DUP2 JUMP JUMPDEST CALLVALUE DUP1 ISZERO PUSH2 0x26C JUMPI PUSH1 0x0 DUP1 REVERT JUMPDEST POP PUSH2 0x1E8 PUSH1 0x9 SLOAD DUP2 JUMP JUMPDEST CALLVALUE DUP1 ISZERO PUSH2 0x282 JUMPI PUSH1 0x0 DUP1 REVERT JUMPDEST POP PUSH2 0x28B PUSH2 0x4EA JUMP JUMPDEST STOP JUMPDEST CALLVALUE DUP1 ISZERO PUSH2 0x299 JUMPI PUSH1 0x0 DUP1 REVERT JUMPDEST POP PUSH2 0x1E8 PUSH1 0x1 SLOAD DUP2 JUMP JUMPDEST CALLVALUE DUP1 ISZERO PUSH2 0x2AF JUMPI PUSH1 0x0 DUP1 REVERT JUMPDEST POP PUSH2 0x28B PUSH2 0x591 JUMP JUMPDEST CALLVALUE DUP1 ISZERO PUSH2 0x2C4 JUMPI PUSH1 0x0 DUP1 REVERT JUMPDEST POP PUSH2 0x2CD PUSH2 0x795 JUMP JUMPDEST PUSH1 0x40 MLOAD PUSH2 0x1F2 SWAP2 SWAP1 PUSH2 0x122E JUMP JUMPDEST CALLVALUE DUP1 ISZERO PUSH2 0x2E6 JUMPI PUSH1 0x0 DUP1 REVERT JUMPDEST POP PUSH2 0x2FA PUSH2 0x2F5 CALLDATASIZE PUSH1 0x4 PUSH2 0x127B JUMP JUMPDEST PUSH2 0x7F7 JUMP JUMPDEST PUSH1 0x40 MLOAD PUSH1 0x1 PUSH1 0x1 PUSH1 0xA0 SHL SUB SWAP1 SWAP2 AND DUP2 MSTORE PUSH1 0x20 ADD PUSH2 0x1F2 JUMP JUMPDEST CALLVALUE DUP1 ISZERO PUSH2 0x31E JUMPI PUSH1 0x0 DUP1 REVERT JUMPDEST POP PUSH1 0x2 SLOAD PUSH2 0x2FA SWAP1 PUSH1 0x1 PUSH1 0x1 PUSH1 0xA0 SHL SUB AND DUP2 JUMP JUMPDEST CALLVALUE DUP1 ISZERO PUSH2 0x33E JUMPI PUSH1 0x0 DUP1 REVERT JUMPDEST POP PUSH2 0x1E8 PUSH7 0x38D7EA4C68000 DUP2 JUMP JUMPDEST CALLVALUE DUP1 ISZERO PUSH2 0x359 JUMPI PUSH1 0x0 DUP1 REVERT JUMPDEST POP PUSH2 0x28B PUSH2 0x821 JUMP JUMPDEST CALLVALUE DUP1 ISZERO PUSH2 0x36E JUMPI PUSH1 0x0 DUP1 REVERT JUMPDEST POP PUSH1 0x6 SLOAD PUSH2 0x2FA SWAP1 PUSH1 0x1 PUSH1 0x1 PUSH1 0xA0 SHL SUB AND DUP2 JUMP JUMPDEST PUSH2 0x28B PUSH2 0x8C0 JUMP JUMPDEST CALLVALUE DUP1 ISZERO PUSH2 0x396 JUMPI PUSH1 0x0 DUP1 REVERT JUMPDEST POP PUSH2 0x1E8 PUSH2 0x9E3 JUMP JUMPDEST CALLVALUE DUP1 ISZERO PUSH2 0x3AB JUMPI PUSH1 0x0 DUP1 REVERT JUMPDEST POP CALLER PUSH1 0x0 SWAP1 DUP2 MSTORE PUSH1 0xA PUSH1 0x20 MSTORE PUSH1 0x40 SWAP1 KECCAK256 SLOAD ISZERO ISZERO PUSH1 0x40 MLOAD SWAP1 ISZERO ISZERO DUP2 MSTORE PUSH1 0x20 ADD PUSH2 0x1F2 JUMP JUMPDEST PUSH2 0x28B PUSH2 0x9FA JUMP JUMPDEST CALLVALUE DUP1 ISZERO PUSH2 0x3E2 JUMPI PUSH1 0x0 DUP1 REVERT JUMPDEST POP PUSH2 0x1E8 PUSH2 0x2710 DUP2 JUMP JUMPDEST PUSH2 0x28B PUSH2 0xB90 JUMP JUMPDEST CALLVALUE DUP1 ISZERO PUSH2 0x400 JUMPI PUSH1 0x0 DUP1 REVERT JUMPDEST POP PUSH2 0x28B PUSH2 0xD1D JUMP JUMPDEST PUSH2 0x28B PUSH2 0xE33 JUMP JUMPDEST CALLVALUE DUP1 ISZERO PUSH2 0x41D JUMPI PUSH1 0x0 DUP1 REVERT JUMPDEST POP PUSH2 0x1E8 PUSH1 0x3 SLOAD DUP2 JUMP JUMPDEST CALLVALUE DUP1 ISZERO PUSH2 0x433 JUMPI PUSH1 0x0 DUP1 REVERT JUMPDEST POP PUSH2 0x1E8 PUSH2 0xFC9 JUMP JUMPDEST CALLVALUE DUP1 ISZERO PUSH2 0x448 JUMPI PUSH1 0x0 DUP1 REVERT JUMPDEST POP PUSH2 0x1E8 PUSH2 0x457 CALLDATASIZE PUSH1 0x4 PUSH2 0x1294 JUMP JUMPDEST PUSH1 0x1 PUSH1 0x1 PUSH1 0xA0 SHL SUB AND PUSH1 0x0 SWAP1 DUP2 MSTORE PUSH1 0xA PUSH1 0x20 MSTORE PUSH1 0x40 SWAP1 KECCAK256 SLOAD SWAP1 JUMP JUMPDEST CALLVALUE DUP1 ISZERO PUSH2 0x47E JUMPI PUSH1 0x0 DUP1 REVERT JUMPDEST POP PUSH2 0x1E8 PUSH1 0x7 SLOAD DUP2 JUMP JUMPDEST CALLVALUE DUP1 ISZERO PUSH2 0x494 JUMPI PUSH1 0x0 DUP1 REVERT JUMPDEST POP PUSH2 0x1E8 PUSH2 0x4A3 CALLDATASIZE PUSH1 0x4 PUSH2 0x1294 JUMP JUMPDEST PUSH1 0xA PUSH1 0x20 MSTORE PUSH1 0x0 SWAP1 DUP2 MSTORE PUSH1 0x40 SWAP1 KECCAK256 SLOAD DUP2 JUMP JUMPDEST CALLVALUE DUP1 ISZERO PUSH2 0x4C1 JUMPI PUSH1 0x0 DUP1 REVERT JUMPDEST POP PUSH2 0x28B PUSH2 0xFDA JUMP JUMPDEST CALLVALUE DUP1 ISZERO PUSH2 0x4D6 JUMPI PUSH1 0x0 DUP1 REVERT JUMPDEST POP PUSH1 0x4 SLOAD PUSH2 0x2FA SWAP1 PUSH1 0x1 PUSH1 0x1 PUSH1 0xA0 SHL SUB AND DUP2 JUMP JUMPDEST PUSH1 0x2 SLOAD PUSH1 0x1 PUSH1 0x1 PUSH1 0xA0 SHL SUB AND CALLER EQ PUSH2 0x554 JUMPI PUSH1 0x40 MLOAD PUSH3 0x461BCD PUSH1 0xE5 SHL DUP2 MSTORE PUSH1 0x20 PUSH1 0x4 DUP3 ADD MSTORE PUSH1 0x22 PUSH1 0x24 DUP3 ADD MSTORE PUSH32 0x43616C6C6572206973206E6F7420746865206C6F7474657279206F7065726174 PUSH1 0x44 DUP3 ADD MSTORE PUSH2 0x37B9 PUSH1 0xF1 SHL PUSH1 0x64 DUP3 ADD MSTORE PUSH1 0x84 ADD JUMPDEST PUSH1 0x40 MLOAD DUP1 SWAP2 SUB SWAP1 REVERT JUMPDEST PUSH1 0x3 DUP1 SLOAD PUSH1 0x0 SWAP2 DUP3 SWAP1 SSTORE PUSH1 0x40 MLOAD CALLER SWAP3 DUP4 SWAP2 DUP4 ISZERO PUSH2 0x8FC MUL SWAP2 DUP5 SWAP2 SWAP1 DUP2 DUP2 DUP2 DUP6 DUP9 DUP9 CALL SWAP4 POP POP POP POP ISZERO DUP1 ISZERO PUSH2 0x58C JUMPI RETURNDATASIZE PUSH1 0x0 DUP1 RETURNDATACOPY RETURNDATASIZE PUSH1 0x0 REVERT JUMPDEST POP POP POP JUMP JUMPDEST PUSH1 0x2 SLOAD PUSH1 0x1 PUSH1 0x1 PUSH1 0xA0 SHL SUB AND CALLER EQ PUSH2 0x5F6 JUMPI PUSH1 0x40 MLOAD PUSH3 0x461BCD PUSH1 0xE5 SHL DUP2 MSTORE PUSH1 0x20 PUSH1 0x4 DUP3 ADD MSTORE PUSH1 0x22 PUSH1 0x24 DUP3 ADD MSTORE PUSH32 0x43616C6C6572206973206E6F7420746865206C6F7474657279206F7065726174 PUSH1 0x44 DUP3 ADD MSTORE PUSH2 0x37B9 PUSH1 0xF1 SHL PUSH1 0x64 DUP3 ADD MSTORE PUSH1 0x84 ADD PUSH2 0x54B JUMP JUMPDEST PUSH1 0xB SLOAD PUSH2 0x645 JUMPI PUSH1 0x40 MLOAD PUSH3 0x461BCD PUSH1 0xE5 SHL DUP2 MSTORE PUSH1 0x20 PUSH1 0x4 DUP3 ADD MSTORE PUSH1 0x19 PUSH1 0x24 DUP3 ADD MSTORE PUSH32 0x4E6F207469636B65747320776572652070757263686173656400000000000000 PUSH1 0x44 DUP3 ADD MSTORE PUSH1 0x64 ADD PUSH2 0x54B JUMP JUMPDEST PUSH1 0xB SLOAD PUSH1 0x0 SWAP1 PUSH2 0x655 SWAP1 NUMBER PUSH2 0x12DA JUMP JUMPDEST PUSH1 0x40 DUP1 MLOAD TIMESTAMP PUSH1 0x20 DUP3 ADD MSTORE SWAP2 BLOCKHASH SWAP1 DUP3 ADD DUP2 SWAP1 MSTORE SWAP2 POP PUSH1 0x0 SWAP1 PUSH1 0x60 ADD PUSH1 0x40 DUP1 MLOAD PUSH1 0x1F NOT DUP2 DUP5 SUB ADD DUP2 MSTORE SWAP2 SWAP1 MSTORE DUP1 MLOAD PUSH1 0x20 SWAP1 SWAP2 ADD KECCAK256 PUSH1 0xB SLOAD SWAP1 SWAP2 POP PUSH1 0x0 SWAP1 PUSH2 0x69A SWAP1 DUP4 PUSH2 0x1309 JUMP JUMPDEST SWAP1 POP PUSH1 0x0 PUSH1 0xB DUP3 DUP2 SLOAD DUP2 LT PUSH2 0x6B1 JUMPI PUSH2 0x6B1 PUSH2 0x131D JUMP JUMPDEST PUSH1 0x0 SWAP2 DUP3 MSTORE PUSH1 0x20 DUP3 KECCAK256 ADD SLOAD PUSH1 0x4 DUP1 SLOAD PUSH1 0x1 PUSH1 0x1 PUSH1 0xA0 SHL SUB NOT AND PUSH1 0x1 PUSH1 0x1 PUSH1 0xA0 SHL SUB SWAP1 SWAP3 AND SWAP2 DUP3 OR SWAP1 SSTORE SWAP1 SLOAD SWAP1 SWAP2 POP PUSH2 0x6F1 SWAP1 PUSH7 0x38D7EA4C68000 SWAP1 PUSH2 0x12DA JUMP JUMPDEST PUSH1 0xB SLOAD PUSH2 0x6FE SWAP2 SWAP1 PUSH2 0x1333 JUMP JUMPDEST PUSH1 0x1 PUSH1 0x1 PUSH1 0xA0 SHL SUB DUP3 AND PUSH1 0x0 SWAP1 DUP2 MSTORE PUSH1 0xA PUSH1 0x20 MSTORE PUSH1 0x40 DUP2 KECCAK256 DUP1 SLOAD SWAP1 SWAP2 SWAP1 PUSH2 0x726 SWAP1 DUP5 SWAP1 PUSH2 0x134A JUMP JUMPDEST SWAP1 SWAP2 SSTORE POP POP PUSH1 0x1 PUSH1 0x1 PUSH1 0xA0 SHL SUB DUP2 AND PUSH1 0x0 SWAP1 DUP2 MSTORE PUSH1 0xA PUSH1 0x20 MSTORE PUSH1 0x40 SWAP1 KECCAK256 SLOAD PUSH1 0x5 SSTORE PUSH1 0xB SLOAD PUSH2 0x75C SWAP1 PUSH7 0x38D7EA4C68000 SWAP1 PUSH2 0x1333 JUMP JUMPDEST PUSH1 0x3 PUSH1 0x0 DUP3 DUP3 SLOAD PUSH2 0x76D SWAP2 SWAP1 PUSH2 0x134A JUMP JUMPDEST SWAP1 SWAP2 SSTORE POP PUSH2 0x77F SWAP1 POP PUSH1 0xB PUSH1 0x0 PUSH2 0x11F4 JUMP JUMPDEST PUSH2 0x78C PUSH3 0x278D00 TIMESTAMP PUSH2 0x134A JUMP JUMPDEST PUSH1 0x1 SSTORE POP POP POP POP JUMP JUMPDEST PUSH1 0x60 PUSH1 0xB DUP1 SLOAD DUP1 PUSH1 0x20 MUL PUSH1 0x20 ADD PUSH1 0x40 MLOAD SWAP1 DUP2 ADD PUSH1 0x40 MSTORE DUP1 SWAP3 SWAP2 SWAP1 DUP2 DUP2 MSTORE PUSH1 0x20 ADD DUP3 DUP1 SLOAD DUP1 ISZERO PUSH2 0x7ED JUMPI PUSH1 0x20 MUL DUP3 ADD SWAP2 SWAP1 PUSH1 0x0 MSTORE PUSH1 0x20 PUSH1 0x0 KECCAK256 SWAP1 JUMPDEST DUP2 SLOAD PUSH1 0x1 PUSH1 0x1 PUSH1 0xA0 SHL SUB AND DUP2 MSTORE PUSH1 0x1 SWAP1 SWAP2 ADD SWAP1 PUSH1 0x20 ADD DUP1 DUP4 GT PUSH2 0x7CF JUMPI JUMPDEST POP POP POP POP POP SWAP1 POP SWAP1 JUMP JUMPDEST PUSH1 0xB DUP2 DUP2 SLOAD DUP2 LT PUSH2 0x807 JUMPI PUSH1 0x0 DUP1 REVERT JUMPDEST PUSH1 0x0 SWAP2 DUP3 MSTORE PUSH1 0x20 SWAP1 SWAP2 KECCAK256 ADD SLOAD PUSH1 0x1 PUSH1 0x1 PUSH1 0xA0 SHL SUB AND SWAP1 POP DUP2 JUMP JUMPDEST CALLER PUSH1 0x0 SWAP1 DUP2 MSTORE PUSH1 0xA PUSH1 0x20 MSTORE PUSH1 0x40 SWAP1 KECCAK256 SLOAD PUSH2 0x87D JUMPI PUSH1 0x40 MLOAD PUSH3 0x461BCD PUSH1 0xE5 SHL DUP2 MSTORE PUSH1 0x20 PUSH1 0x4 DUP3 ADD MSTORE PUSH1 0x16 PUSH1 0x24 DUP3 ADD MSTORE PUSH32 0x43616C6C6572206973206E6F7420612077696E6E657200000000000000000000 PUSH1 0x44 DUP3 ADD MSTORE PUSH1 0x64 ADD PUSH2 0x54B JUMP JUMPDEST CALLER PUSH1 0x0 DUP2 DUP2 MSTORE PUSH1 0xA PUSH1 0x20 MSTORE PUSH1 0x40 DUP1 DUP3 KECCAK256 DUP1 SLOAD SWAP1 DUP4 SWAP1 SSTORE SWAP1 MLOAD SWAP1 SWAP2 DUP4 SWAP2 DUP4 ISZERO PUSH2 0x8FC MUL SWAP2 DUP5 SWAP2 SWAP1 DUP2 DUP2 DUP2 DUP6 DUP9 DUP9 CALL SWAP4 POP POP POP POP ISZERO DUP1 ISZERO PUSH2 0x58C JUMPI RETURNDATASIZE PUSH1 0x0 DUP1 RETURNDATACOPY RETURNDATASIZE PUSH1 0x0 REVERT JUMPDEST PUSH1 0x0 SLOAD PUSH2 0x8CD SWAP1 CALLVALUE PUSH2 0x1309 JUMP JUMPDEST PUSH1 0x0 EQ PUSH2 0x8DB PUSH1 0x0 SLOAD PUSH2 0x10D3 JUMP JUMPDEST PUSH1 0x40 MLOAD PUSH1 0x20 ADD PUSH2 0x8EB SWAP2 SWAP1 PUSH2 0x1381 JUMP JUMPDEST PUSH1 0x40 MLOAD PUSH1 0x20 DUP2 DUP4 SUB SUB DUP2 MSTORE SWAP1 PUSH1 0x40 MSTORE SWAP1 PUSH2 0x918 JUMPI PUSH1 0x40 MLOAD PUSH3 0x461BCD PUSH1 0xE5 SHL DUP2 MSTORE PUSH1 0x4 ADD PUSH2 0x54B SWAP2 SWAP1 PUSH2 0x13ED JUMP JUMPDEST POP PUSH1 0x0 DUP1 SLOAD PUSH2 0x927 SWAP1 CALLVALUE PUSH2 0x1420 JUMP JUMPDEST SWAP1 POP PUSH2 0x931 PUSH2 0x9E3 JUMP JUMPDEST DUP2 GT ISZERO PUSH2 0x980 JUMPI PUSH1 0x40 MLOAD PUSH3 0x461BCD PUSH1 0xE5 SHL DUP2 MSTORE PUSH1 0x20 PUSH1 0x4 DUP3 ADD MSTORE PUSH1 0x1D PUSH1 0x24 DUP3 ADD MSTORE PUSH32 0x4E6F7420656E6F756768207469636B65747320617661696C61626C652E000000 PUSH1 0x44 DUP3 ADD MSTORE PUSH1 0x64 ADD PUSH2 0x54B JUMP JUMPDEST PUSH1 0x0 JUMPDEST DUP2 DUP2 LT ISZERO PUSH2 0x9DF JUMPI PUSH1 0xB DUP1 SLOAD PUSH1 0x1 DUP2 ADD DUP3 SSTORE PUSH1 0x0 SWAP2 SWAP1 SWAP2 MSTORE PUSH32 0x175B7A638427703F0DBE7BB9BBF987A2551717B34E79F33B5B1008D1FA01DB9 ADD DUP1 SLOAD PUSH1 0x1 PUSH1 0x1 PUSH1 0xA0 SHL SUB NOT AND CALLER OR SWAP1 SSTORE DUP1 PUSH2 0x9D7 DUP2 PUSH2 0x1434 JUMP JUMPDEST SWAP2 POP POP PUSH2 0x983 JUMP JUMPDEST POP POP JUMP JUMPDEST PUSH1 0xB SLOAD PUSH1 0x0 SWAP1 PUSH2 0x9F5 SWAP1 PUSH2 0x2710 PUSH2 0x12DA JUMP JUMPDEST SWAP1 POP SWAP1 JUMP JUMPDEST PUSH7 0x1550F7DCA70000 PUSH1 0x0 DUP2 SWAP1 SSTORE PUSH2 0xA11 SWAP1 CALLVALUE PUSH2 0x1309 JUMP JUMPDEST PUSH1 0x0 EQ PUSH2 0xA1F PUSH1 0x0 SLOAD PUSH2 0x10D3 JUMP JUMPDEST PUSH1 0x40 MLOAD PUSH1 0x20 ADD PUSH2 0xA2F SWAP2 SWAP1 PUSH2 0x1381 JUMP JUMPDEST PUSH1 0x40 MLOAD PUSH1 0x20 DUP2 DUP4 SUB SUB DUP2 MSTORE SWAP1 PUSH1 0x40 MSTORE SWAP1 PUSH2 0xA5C JUMPI PUSH1 0x40 MLOAD PUSH3 0x461BCD PUSH1 0xE5 SHL DUP2 MSTORE PUSH1 0x4 ADD PUSH2 0x54B SWAP2 SWAP1 PUSH2 0x13ED JUMP JUMPDEST POP PUSH1 0x0 DUP1 SLOAD PUSH2 0xA6B SWAP1 CALLVALUE PUSH2 0x1420 JUMP JUMPDEST SWAP1 POP PUSH2 0xA75 PUSH2 0x9E3 JUMP JUMPDEST DUP2 GT ISZERO PUSH2 0xAC4 JUMPI PUSH1 0x40 MLOAD PUSH3 0x461BCD PUSH1 0xE5 SHL DUP2 MSTORE PUSH1 0x20 PUSH1 0x4 DUP3 ADD MSTORE PUSH1 0x1D PUSH1 0x24 DUP3 ADD MSTORE PUSH32 0x4E6F7420656E6F756768207469636B65747320617661696C61626C652E000000 PUSH1 0x44 DUP3 ADD MSTORE PUSH1 0x64 ADD PUSH2 0x54B JUMP JUMPDEST DUP1 PUSH1 0x5 EQ PUSH2 0xB31 JUMPI PUSH1 0x40 MLOAD PUSH3 0x461BCD PUSH1 0xE5 SHL DUP2 MSTORE PUSH1 0x20 PUSH1 0x4 DUP3 ADD MSTORE PUSH1 0x34 PUSH1 0x24 DUP3 ADD MSTORE PUSH32 0x596F752063616E206F6E6C79206765742035207469636B657473206174206120 PUSH1 0x44 DUP3 ADD MSTORE PUSH20 0x3A34B6B2903BB4BA34103A3434B99037B33332B9 PUSH1 0x61 SHL PUSH1 0x64 DUP3 ADD MSTORE PUSH1 0x84 ADD PUSH2 0x54B JUMP JUMPDEST PUSH1 0x0 JUMPDEST DUP2 DUP2 LT ISZERO PUSH2 0x9DF JUMPI PUSH1 0xB DUP1 SLOAD PUSH1 0x1 DUP2 ADD DUP3 SSTORE PUSH1 0x0 SWAP2 SWAP1 SWAP2 MSTORE PUSH32 0x175B7A638427703F0DBE7BB9BBF987A2551717B34E79F33B5B1008D1FA01DB9 ADD DUP1 SLOAD PUSH1 0x1 PUSH1 0x1 PUSH1 0xA0 SHL SUB NOT AND CALLER OR SWAP1 SSTORE DUP1 PUSH2 0xB88 DUP2 PUSH2 0x1434 JUMP JUMPDEST SWAP2 POP POP PUSH2 0xB34 JUMP JUMPDEST PUSH1 0x0 SLOAD PUSH2 0xB9D SWAP1 CALLVALUE PUSH2 0x1309 JUMP JUMPDEST PUSH1 0x0 EQ PUSH2 0xBAB PUSH1 0x0 SLOAD PUSH2 0x10D3 JUMP JUMPDEST PUSH1 0x40 MLOAD PUSH1 0x20 ADD PUSH2 0xBBB SWAP2 SWAP1 PUSH2 0x1381 JUMP JUMPDEST PUSH1 0x40 MLOAD PUSH1 0x20 DUP2 DUP4 SUB SUB DUP2 MSTORE SWAP1 PUSH1 0x40 MSTORE SWAP1 PUSH2 0xBE8 JUMPI PUSH1 0x40 MLOAD PUSH3 0x461BCD PUSH1 0xE5 SHL DUP2 MSTORE PUSH1 0x4 ADD PUSH2 0x54B SWAP2 SWAP1 PUSH2 0x13ED JUMP JUMPDEST POP PUSH1 0x0 DUP1 SLOAD PUSH2 0xBF7 SWAP1 CALLVALUE PUSH2 0x1420 JUMP JUMPDEST SWAP1 POP PUSH2 0xC01 PUSH2 0x9E3 JUMP JUMPDEST DUP2 GT ISZERO PUSH2 0xC50 JUMPI PUSH1 0x40 MLOAD PUSH3 0x461BCD PUSH1 0xE5 SHL DUP2 MSTORE PUSH1 0x20 PUSH1 0x4 DUP3 ADD MSTORE PUSH1 0x1D PUSH1 0x24 DUP3 ADD MSTORE PUSH32 0x4E6F7420656E6F756768207469636B65747320617661696C61626C652E000000 PUSH1 0x44 DUP3 ADD MSTORE PUSH1 0x64 ADD PUSH2 0x54B JUMP JUMPDEST DUP1 PUSH1 0x7 EQ PUSH2 0xCBD JUMPI PUSH1 0x40 MLOAD PUSH3 0x461BCD PUSH1 0xE5 SHL DUP2 MSTORE PUSH1 0x20 PUSH1 0x4 DUP3 ADD MSTORE PUSH1 0x34 PUSH1 0x24 DUP3 ADD MSTORE PUSH32 0x596F752063616E206F6E6C79206765742037207469636B657473206174206120 PUSH1 0x44 DUP3 ADD MSTORE PUSH20 0x3A34B6B2903BB4BA34103A3434B99037B33332B9 PUSH1 0x61 SHL PUSH1 0x64 DUP3 ADD MSTORE PUSH1 0x84 ADD PUSH2 0x54B JUMP JUMPDEST PUSH1 0x0 JUMPDEST PUSH1 0xA DUP2 LT ISZERO PUSH2 0x9DF JUMPI PUSH1 0xB DUP1 SLOAD PUSH1 0x1 DUP2 ADD DUP3 SSTORE PUSH1 0x0 SWAP2 SWAP1 SWAP2 MSTORE PUSH32 0x175B7A638427703F0DBE7BB9BBF987A2551717B34E79F33B5B1008D1FA01DB9 ADD DUP1 SLOAD PUSH1 0x1 PUSH1 0x1 PUSH1 0xA0 SHL SUB NOT AND CALLER OR SWAP1 SSTORE DUP1 PUSH2 0xD15 DUP2 PUSH2 0x1434 JUMP JUMPDEST SWAP2 POP POP PUSH2 0xCC0 JUMP JUMPDEST PUSH1 0x1 SLOAD TIMESTAMP LT ISZERO PUSH2 0xD6F JUMPI PUSH1 0x40 MLOAD PUSH3 0x461BCD PUSH1 0xE5 SHL DUP2 MSTORE PUSH1 0x20 PUSH1 0x4 DUP3 ADD MSTORE PUSH1 0x1B PUSH1 0x24 DUP3 ADD MSTORE PUSH32 0x746865206C6F7474657279206E6F742065787069726564207965740000000000 PUSH1 0x44 DUP3 ADD MSTORE PUSH1 0x64 ADD PUSH2 0x54B JUMP JUMPDEST PUSH1 0x0 JUMPDEST PUSH1 0xB SLOAD DUP2 LT ISZERO PUSH2 0xE24 JUMPI PUSH1 0x0 PUSH1 0xB DUP3 DUP2 SLOAD DUP2 LT PUSH2 0xD91 JUMPI PUSH2 0xD91 PUSH2 0x131D JUMP JUMPDEST PUSH1 0x0 SWAP2 DUP3 MSTORE PUSH1 0x20 DUP3 KECCAK256 ADD SLOAD PUSH1 0xB DUP1 SLOAD PUSH1 0x1 PUSH1 0x1 PUSH1 0xA0 SHL SUB SWAP1 SWAP3 AND SWAP4 POP SWAP1 DUP5 SWAP1 DUP2 LT PUSH2 0xDBE JUMPI PUSH2 0xDBE PUSH2 0x131D JUMP JUMPDEST PUSH1 0x0 SWAP2 DUP3 MSTORE PUSH1 0x20 DUP3 KECCAK256 ADD DUP1 SLOAD PUSH1 0x1 PUSH1 0x1 PUSH1 0xA0 SHL SUB NOT AND PUSH1 0x1 PUSH1 0x1 PUSH1 0xA0 SHL SUB SWAP4 DUP5 AND OR SWAP1 SSTORE DUP1 SLOAD PUSH1 0x40 MLOAD SWAP3 DUP5 AND SWAP3 PUSH2 0x8FC DUP3 ISZERO MUL SWAP3 DUP2 DUP2 DUP2 DUP6 DUP9 DUP9 CALL SWAP4 POP POP POP POP ISZERO DUP1 ISZERO PUSH2 0xE0F JUMPI RETURNDATASIZE PUSH1 0x0 DUP1 RETURNDATACOPY RETURNDATASIZE PUSH1 0x0 REVERT JUMPDEST POP POP DUP1 DUP1 PUSH2 0xE1C SWAP1 PUSH2 0x1434 JUMP JUMPDEST SWAP2 POP POP PUSH2 0xD72 JUMP JUMPDEST POP PUSH2 0xE31 PUSH1 0xB PUSH1 0x0 PUSH2 0x11F4 JUMP JUMPDEST JUMP JUMPDEST PUSH7 0x1FF973CAFA8000 PUSH1 0x0 DUP2 SWAP1 SSTORE PUSH2 0xE4A SWAP1 CALLVALUE PUSH2 0x1309 JUMP JUMPDEST PUSH1 0x0 EQ PUSH2 0xE58 PUSH1 0x0 SLOAD PUSH2 0x10D3 JUMP JUMPDEST PUSH1 0x40 MLOAD PUSH1 0x20 ADD PUSH2 0xE68 SWAP2 SWAP1 PUSH2 0x1381 JUMP JUMPDEST PUSH1 0x40 MLOAD PUSH1 0x20 DUP2 DUP4 SUB SUB DUP2 MSTORE SWAP1 PUSH1 0x40 MSTORE SWAP1 PUSH2 0xE95 JUMPI PUSH1 0x40 MLOAD PUSH3 0x461BCD PUSH1 0xE5 SHL DUP2 MSTORE PUSH1 0x4 ADD PUSH2 0x54B SWAP2 SWAP1 PUSH2 0x13ED JUMP JUMPDEST POP PUSH1 0x0 DUP1 SLOAD PUSH2 0xEA4 SWAP1 CALLVALUE PUSH2 0x1420 JUMP JUMPDEST SWAP1 POP PUSH2 0xEAE PUSH2 0x9E3 JUMP JUMPDEST DUP2 GT ISZERO PUSH2 0xEFD JUMPI PUSH1 0x40 MLOAD PUSH3 0x461BCD PUSH1 0xE5 SHL DUP2 MSTORE PUSH1 0x20 PUSH1 0x4 DUP3 ADD MSTORE PUSH1 0x1D PUSH1 0x24 DUP3 ADD MSTORE PUSH32 0x4E6F7420656E6F756768207469636B65747320617661696C61626C652E000000 PUSH1 0x44 DUP3 ADD MSTORE PUSH1 0x64 ADD PUSH2 0x54B JUMP JUMPDEST DUP1 PUSH1 0x3 EQ PUSH2 0xF6A JUMPI PUSH1 0x40 MLOAD PUSH3 0x461BCD PUSH1 0xE5 SHL DUP2 MSTORE PUSH1 0x20 PUSH1 0x4 DUP3 ADD MSTORE PUSH1 0x34 PUSH1 0x24 DUP3 ADD MSTORE PUSH32 0x596F752063616E206F6E6C79206765742033207469636B657473206174206120 PUSH1 0x44 DUP3 ADD MSTORE PUSH20 0x3A34B6B2903BB4BA34103A3434B99037B33332B9 PUSH1 0x61 SHL PUSH1 0x64 DUP3 ADD MSTORE PUSH1 0x84 ADD PUSH2 0x54B JUMP JUMPDEST PUSH1 0x0 JUMPDEST DUP2 DUP2 LT ISZERO PUSH2 0x9DF JUMPI PUSH1 0xB DUP1 SLOAD PUSH1 0x1 DUP2 ADD DUP3 SSTORE PUSH1 0x0 SWAP2 SWAP1 SWAP2 MSTORE PUSH32 0x175B7A638427703F0DBE7BB9BBF987A2551717B34E79F33B5B1008D1FA01DB9 ADD DUP1 SLOAD PUSH1 0x1 PUSH1 0x1 PUSH1 0xA0 SHL SUB NOT AND CALLER OR SWAP1 SSTORE DUP1 PUSH2 0xFC1 DUP2 PUSH2 0x1434 JUMP JUMPDEST SWAP2 POP POP PUSH2 0xF6D JUMP JUMPDEST PUSH1 0x0 DUP1 SLOAD PUSH1 0xB SLOAD PUSH2 0x9F5 SWAP2 SWAP1 PUSH2 0x1333 JUMP JUMPDEST PUSH1 0x2 SLOAD PUSH1 0x1 PUSH1 0x1 PUSH1 0xA0 SHL SUB AND CALLER EQ PUSH2 0x103F JUMPI PUSH1 0x40 MLOAD PUSH3 0x461BCD PUSH1 0xE5 SHL DUP2 MSTORE PUSH1 0x20 PUSH1 0x4 DUP3 ADD MSTORE PUSH1 0x22 PUSH1 0x24 DUP3 ADD MSTORE PUSH32 0x43616C6C6572206973206E6F7420746865206C6F7474657279206F7065726174 PUSH1 0x44 DUP3 ADD MSTORE PUSH2 0x37B9 PUSH1 0xF1 SHL PUSH1 0x64 DUP3 ADD MSTORE PUSH1 0x84 ADD PUSH2 0x54B JUMP JUMPDEST PUSH1 0xB SLOAD ISZERO PUSH2 0x10B5 JUMPI PUSH1 0x40 MLOAD PUSH3 0x461BCD PUSH1 0xE5 SHL DUP2 MSTORE PUSH1 0x20 PUSH1 0x4 DUP3 ADD MSTORE PUSH1 0x26 PUSH1 0x24 DUP3 ADD MSTORE PUSH32 0x43616E6E6F742052657374617274204472617720617320447261772069732069 PUSH1 0x44 DUP3 ADD MSTORE PUSH32 0x6E20706C61790000000000000000000000000000000000000000000000000000 PUSH1 0x64 DUP3 ADD MSTORE PUSH1 0x84 ADD PUSH2 0x54B JUMP JUMPDEST PUSH2 0x10C1 PUSH1 0xB PUSH1 0x0 PUSH2 0x11F4 JUMP JUMPDEST PUSH2 0x10CE PUSH3 0x278D00 TIMESTAMP PUSH2 0x134A JUMP JUMPDEST PUSH1 0x1 SSTORE JUMP JUMPDEST PUSH1 0x60 DUP2 PUSH1 0x0 SUB PUSH2 0x10FA JUMPI POP POP PUSH1 0x40 DUP1 MLOAD DUP1 DUP3 ADD SWAP1 SWAP2 MSTORE PUSH1 0x1 DUP2 MSTORE PUSH1 0x3 PUSH1 0xFC SHL PUSH1 0x20 DUP3 ADD MSTORE SWAP1 JUMP JUMPDEST DUP2 PUSH1 0x0 JUMPDEST DUP2 ISZERO PUSH2 0x1124 JUMPI DUP1 PUSH2 0x110E DUP2 PUSH2 0x1434 JUMP JUMPDEST SWAP2 POP PUSH2 0x111D SWAP1 POP PUSH1 0xA DUP4 PUSH2 0x1420 JUMP JUMPDEST SWAP2 POP PUSH2 0x10FE JUMP JUMPDEST PUSH1 0x0 DUP2 PUSH8 0xFFFFFFFFFFFFFFFF DUP2 GT ISZERO PUSH2 0x113F JUMPI PUSH2 0x113F PUSH2 0x144D JUMP JUMPDEST PUSH1 0x40 MLOAD SWAP1 DUP1 DUP3 MSTORE DUP1 PUSH1 0x1F ADD PUSH1 0x1F NOT AND PUSH1 0x20 ADD DUP3 ADD PUSH1 0x40 MSTORE DUP1 ISZERO PUSH2 0x1169 JUMPI PUSH1 0x20 DUP3 ADD DUP2 DUP1 CALLDATASIZE DUP4 CALLDATACOPY ADD SWAP1 POP JUMPDEST POP SWAP1 POP JUMPDEST DUP5 ISZERO PUSH2 0x11EC JUMPI PUSH2 0x117E PUSH1 0x1 DUP4 PUSH2 0x12DA JUMP JUMPDEST SWAP2 POP PUSH2 0x118B PUSH1 0xA DUP7 PUSH2 0x1309 JUMP JUMPDEST PUSH2 0x1196 SWAP1 PUSH1 0x30 PUSH2 0x134A JUMP JUMPDEST PUSH1 0xF8 SHL DUP2 DUP4 DUP2 MLOAD DUP2 LT PUSH2 0x11AB JUMPI PUSH2 0x11AB PUSH2 0x131D JUMP JUMPDEST PUSH1 0x20 ADD ADD SWAP1 PUSH31 0xFFFFFFFFFFFFFFFFFFFFFFFFFFFFFFFFFFFFFFFFFFFFFFFFFFFFFFFFFFFFFF NOT AND SWAP1 DUP2 PUSH1 0x0 BYTE SWAP1 MSTORE8 POP PUSH2 0x11E5 PUSH1 0xA DUP7 PUSH2 0x1420 JUMP JUMPDEST SWAP5 POP PUSH2 0x116D JUMP JUMPDEST SWAP5 SWAP4 POP POP POP POP JUMP JUMPDEST POP DUP1 SLOAD PUSH1 0x0 DUP3 SSTORE SWAP1 PUSH1 0x0 MSTORE PUSH1 0x20 PUSH1 0x0 KECCAK256 SWAP1 DUP2 ADD SWAP1 PUSH2 0x1212 SWAP2 SWAP1 PUSH2 0x1215 JUMP JUMPDEST POP JUMP JUMPDEST JUMPDEST DUP1 DUP3 GT ISZERO PUSH2 0x122A JUMPI PUSH1 0x0 DUP2 SSTORE PUSH1 0x1 ADD PUSH2 0x1216 JUMP JUMPDEST POP SWAP1 JUMP JUMPDEST PUSH1 0x20 DUP1 DUP3 MSTORE DUP3 MLOAD DUP3 DUP3 ADD DUP2 SWAP1 MSTORE PUSH1 0x0 SWAP2 SWAP1 DUP5 DUP3 ADD SWAP1 PUSH1 0x40 DUP6 ADD SWAP1 DUP5 JUMPDEST DUP2 DUP2 LT ISZERO PUSH2 0x126F JUMPI DUP4 MLOAD PUSH1 0x1 PUSH1 0x1 PUSH1 0xA0 SHL SUB AND DUP4 MSTORE SWAP3 DUP5 ADD SWAP3 SWAP2 DUP5 ADD SWAP2 PUSH1 0x1 ADD PUSH2 0x124A JUMP JUMPDEST POP SWAP1 SWAP7 SWAP6 POP POP POP POP POP POP JUMP JUMPDEST PUSH1 0x0 PUSH1 0x20 DUP3 DUP5 SUB SLT ISZERO PUSH2 0x128D JUMPI PUSH1 0x0 DUP1 REVERT JUMPDEST POP CALLDATALOAD SWAP2 SWAP1 POP JUMP JUMPDEST PUSH1 0x0 PUSH1 0x20 DUP3 DUP5 SUB SLT ISZERO PUSH2 0x12A6 JUMPI PUSH1 0x0 DUP1 REVERT JUMPDEST DUP2 CALLDATALOAD PUSH1 0x1 PUSH1 0x1 PUSH1 0xA0 SHL SUB DUP2 AND DUP2 EQ PUSH2 0x12BD JUMPI PUSH1 0x0 DUP1 REVERT JUMPDEST SWAP4 SWAP3 POP POP POP JUMP JUMPDEST PUSH4 0x4E487B71 PUSH1 0xE0 SHL PUSH1 0x0 MSTORE PUSH1 0x11 PUSH1 0x4 MSTORE PUSH1 0x24 PUSH1 0x0 REVERT JUMPDEST DUP2 DUP2 SUB DUP2 DUP2 GT ISZERO PUSH2 0x12ED JUMPI PUSH2 0x12ED PUSH2 0x12C4 JUMP JUMPDEST SWAP3 SWAP2 POP POP JUMP JUMPDEST PUSH4 0x4E487B71 PUSH1 0xE0 SHL PUSH1 0x0 MSTORE PUSH1 0x12 PUSH1 0x4 MSTORE PUSH1 0x24 PUSH1 0x0 REVERT JUMPDEST PUSH1 0x0 DUP3 PUSH2 0x1318 JUMPI PUSH2 0x1318 PUSH2 0x12F3 JUMP JUMPDEST POP MOD SWAP1 JUMP JUMPDEST PUSH4 0x4E487B71 PUSH1 0xE0 SHL PUSH1 0x0 MSTORE PUSH1 0x32 PUSH1 0x4 MSTORE PUSH1 0x24 PUSH1 0x0 REVERT JUMPDEST DUP1 DUP3 MUL DUP2 ISZERO DUP3 DUP3 DIV DUP5 EQ OR PUSH2 0x12ED JUMPI PUSH2 0x12ED PUSH2 0x12C4 JUMP JUMPDEST DUP1 DUP3 ADD DUP1 DUP3 GT ISZERO PUSH2 0x12ED JUMPI PUSH2 0x12ED PUSH2 0x12C4 JUMP JUMPDEST PUSH1 0x0 JUMPDEST DUP4 DUP2 LT ISZERO PUSH2 0x1378 JUMPI DUP2 DUP2 ADD MLOAD DUP4 DUP3 ADD MSTORE PUSH1 0x20 ADD PUSH2 0x1360 JUMP JUMPDEST POP POP PUSH1 0x0 SWAP2 ADD MSTORE JUMP JUMPDEST PUSH32 0x7468652076616C7565206D757374206265206D756C7469706C65206F66200000 DUP2 MSTORE PUSH1 0x0 DUP3 MLOAD PUSH2 0x13B9 DUP2 PUSH1 0x1E DUP6 ADD PUSH1 0x20 DUP8 ADD PUSH2 0x135D JUMP JUMPDEST PUSH32 0x2045746865720000000000000000000000000000000000000000000000000000 PUSH1 0x1E SWAP4 SWAP1 SWAP2 ADD SWAP3 DUP4 ADD MSTORE POP PUSH1 0x24 ADD SWAP2 SWAP1 POP JUMP JUMPDEST PUSH1 0x20 DUP2 MSTORE PUSH1 0x0 DUP3 MLOAD DUP1 PUSH1 0x20 DUP5 ADD MSTORE PUSH2 0x140C DUP2 PUSH1 0x40 DUP6 ADD PUSH1 0x20 DUP8 ADD PUSH2 0x135D JUMP JUMPDEST PUSH1 0x1F ADD PUSH1 0x1F NOT AND SWAP2 SWAP1 SWAP2 ADD PUSH1 0x40 ADD SWAP3 SWAP2 POP POP JUMP JUMPDEST PUSH1 0x0 DUP3 PUSH2 0x142F JUMPI PUSH2 0x142F PUSH2 0x12F3 JUMP JUMPDEST POP DIV SWAP1 JUMP JUMPDEST PUSH1 0x0 PUSH1 0x1 DUP3 ADD PUSH2 0x1446 JUMPI PUSH2 0x1446 PUSH2 0x12C4 JUMP JUMPDEST POP PUSH1 0x1 ADD SWAP1 JUMP JUMPDEST PUSH4 0x4E487B71 PUSH1 0xE0 SHL PUSH1 0x0 MSTORE PUSH1 0x41 PUSH1 0x4 MSTORE PUSH1 0x24 PUSH1 0x0 REVERT INVALID LOG2 PUSH5 0x6970667358 0x22 SLT KECCAK256 PUSH7 0x540BF14EEF749D PUSH9 0xBDCC0F9762C6CCFCA5 PUSH29 0xF387E2D7579C6D86E5EE1E580564736F6C634300081100330000000000 "
    },
    "gasEstimates": {
      "creation": {
        "codeDepositCost": "1054600",
        "executionCost": "118842",
        "totalCost": "1173442"
      },
      "external": {
        "BuyTickets()": "infinite",
        "BuyTicketsBonus()": "infinite",
        "BuyTicketsBonus2()": "infinite",
        "BuyTicketsBonus3()": "infinite",
        "CurrentWinningReward()": "4587",
        "DrawWinnerTicket()": "infinite",
        "IsWinner()": "2450",
        "RefundAll()": "infinite",
        "RemainingTickets()": "2450",
        "WithdrawCommission()": "infinite",
        "WithdrawWinnings()": "infinite",
        "biggestPrize()": "2448",
        "biggestPrizeAmmount()": "2328",
        "bonticket()": "2331",
        "bonticket2()": "2374",
        "checkWinningsAmount()": "2440",
        "duration()": "230",
        "expiration()": "2330",
        "getTickets()": "infinite",
        "getWinningsForAddress(address)": "2602",
        "lastWinner()": "2447",
        "lastWinnerAmount()": "2353",
        "lotteryOperator()": "2382",
        "maxTickets()": "251",
        "operatorTotalCommission()": "2351",
        "restartDraw()": "infinite",
        "ticketCommission()": "251",
        "ticketPrice()": "2352",
        "tickets(uint256)": "4726",
        "winnings(address)": "2539"
      }
    },
    "methodIdentifiers": {
      "BuyTickets()": "91d8b14e",
      "BuyTicketsBonus()": "aa52e8c6",
      "BuyTicketsBonus2()": "97aed58a",
      "BuyTicketsBonus3()": "9c000f2b",
      "CurrentWinningReward()": "c6944fa0",
      "DrawWinnerTicket()": "4788af7c",
      "IsWinner()": "96c85ef3",
      "RefundAll()": "a88f4672",
      "RemainingTickets()": "93a563b5",
      "WithdrawCommission()": "35580df2",
      "WithdrawWinnings()": "71827b7b",
      "biggestPrize()": "7999b66b",
      "biggestPrizeAmmount()": "e89c51c8",
      "bonticket()": "01482fac",
      "bonticket2()": "3458fd87",
      "checkWinningsAmount()": "0789c607",
      "duration()": "0fb5a6b4",
      "expiration()": "4665096d",
      "getTickets()": "4ed02622",
      "getWinningsForAddress(address)": "dd64e534",
      "lastWinner()": "fe188184",
      "lastWinnerAmount()": "06f7f3bf",
      "lotteryOperator()": "5a58acdd",
      "maxTickets()": "9b894703",
      "operatorTotalCommission()": "ba946d79",
      "restartDraw()": "f2613269",
      "ticketCommission()": "6032a4f9",
      "ticketPrice()": "1209b1f6",
      "tickets(uint256)": "50b44712",
      "winnings(address)": "ea3a1499"
    }
  },
  "storageLayout": {
    "storage": [
      {
        "astId": 5,
        "contract": "Lottery.sol:Lottery",
        "label": "ticketPrice",
        "offset": 0,
        "slot": "0",
        "type": "t_uint256"
      },
      {
        "astId": 16,
        "contract": "Lottery.sol:Lottery",
        "label": "expiration",
        "offset": 0,
        "slot": "1",
        "type": "t_uint256"
      },
      {
        "astId": 18,
        "contract": "Lottery.sol:Lottery",
        "label": "lotteryOperator",
        "offset": 0,
        "slot": "2",
        "type": "t_address"
      },
      {
        "astId": 21,
        "contract": "Lottery.sol:Lottery",
        "label": "operatorTotalCommission",
        "offset": 0,
        "slot": "3",
        "type": "t_uint256"
      },
      {
        "astId": 23,
        "contract": "Lottery.sol:Lottery",
        "label": "lastWinner",
        "offset": 0,
        "slot": "4",
        "type": "t_address"
      },
      {
        "astId": 25,
        "contract": "Lottery.sol:Lottery",
        "label": "lastWinnerAmount",
        "offset": 0,
        "slot": "5",
        "type": "t_uint256"
      },
      {
        "astId": 27,
        "contract": "Lottery.sol:Lottery",
        "label": "biggestPrize",
        "offset": 0,
        "slot": "6",
        "type": "t_address"
      },
      {
        "astId": 29,
        "contract": "Lottery.sol:Lottery",
        "label": "biggestPrizeAmmount",
        "offset": 0,
        "slot": "7",
        "type": "t_uint256"
      },
      {
        "astId": 32,
        "contract": "Lottery.sol:Lottery",
        "label": "bonticket",
        "offset": 0,
        "slot": "8",
        "type": "t_uint256"
      },
      {
        "astId": 35,
        "contract": "Lottery.sol:Lottery",
        "label": "bonticket2",
        "offset": 0,
        "slot": "9",
        "type": "t_uint256"
      },
      {
        "astId": 39,
        "contract": "Lottery.sol:Lottery",
        "label": "winnings",
        "offset": 0,
        "slot": "10",
        "type": "t_mapping(t_address,t_uint256)"
      },
      {
        "astId": 42,
        "contract": "Lottery.sol:Lottery",
        "label": "tickets",
        "offset": 0,
        "slot": "11",
        "type": "t_array(t_address)dyn_storage"
      }
    ],
    "types": {
      "t_address": {
        "encoding": "inplace",
        "label": "address",
        "numberOfBytes": "20"
      },
      "t_array(t_address)dyn_storage": {
        "base": "t_address",
        "encoding": "dynamic_array",
        "label": "address[]",
        "numberOfBytes": "32"
      },
      "t_mapping(t_address,t_uint256)": {
        "encoding": "mapping",
        "key": "t_address",
        "label": "mapping(address => uint256)",
        "numberOfBytes": "32",
        "value": "t_uint256"
      },
      "t_uint256": {
        "encoding": "inplace",
        "label": "uint256",
        "numberOfBytes": "32"
      }
    }
  },
  "userdoc": {
    "kind": "user",
    "methods": {},
    "version": 1
  }
}